:020000041000EA
:10000000002008205D0100101B0100101D010010E0
:100010001101001011010010110100101101001058
:100020001901001019010010190100101F01001022
:10003000110100101901001021010010230100100E
:100040001101001011010010110100101101001028
:100050001101001011010010110100101101001018
:100060001101001011010010110100101101001008
:1000700011010010110100101101001011010010F8
:1000800011010010110100101101001011010010E8
:1000900011010010110100101101001011010010D8
:1000A00011010010110100101101001011010010C8
:1000B00011010010110100101101001011010010B8
:1000C00011010010110100101101001011010010A8
:1000D0001101001011010010110100101101001098
:1000E0001101001011010010110100101101001088
:1000F0001101001011010010110100101101001078
:100100001101001011010010110100101101001067
:10011000EFF30580103800BE00BE00BE00BE00BE7A
:1001200000BE00BEF2EB8871B0520010D052001039
:10013000A001001090A31AE7D3DEFFFF42012110B7
:10014000FF010000605D0000793512AB4FF0000048
:100150001E49086006C881F3088810474FF05040D8
:10016000006810B14FF00000F2E70DA40ECC00299A
:1001700002D000F012F8F9E71549164A002000E015
:1001800001C19142FCD11449884714498847144958
:10019000884700BEFDE701C901C29A42FBD3704700
:1001A000D052001010010020D80C0020985E0010E2
:1001B0000000082000000820985E001000100820B1
:1001C00000100820000000007047000008ED00E06B
:1001D000D80C00202C1C0020E52500100502001082
:1001E000DD250010F8B500BF08B5034B1BB103496E
:1001F0000348AFF3008008BD000000005C1A002037
:10020000BC4E0010F8B502F0F9FA40F6B83000F034
:1002100030FE192000F03CF84FF00103192243ECA6
:10022000442000211C460B4F192544EC4050384611
:100230004E1C02F023FB4FF4FA7000F01AFE4FF050
:10024000000343EC40504FF4FA7000F012FE3146C8
:10025000EAE700BFC04E00100C4B10B503EB800264
:1002600053F8203002F5805483F0400303F0C003BC
:1002700023604FF48073C00000F1804000F520300F
:1002800002F540524160136010BD00BF048003407E
:100290004FF0000242EC440042EC40000521FFF721
:1002A000DBBF00000FB407B5049C074802F0B6FAA4
:1002B0003CB105A92046019102F078F9034802F00B
:1002C000ADFA012002F088F9DA4E0010E84E001075
:1002D000EFF3108072B6064BD3E8CF1F012200293E
:1002E000FAD1C3E8412F0029F6D1BFF35F8F7047E1
:1002F000DE1A00200023034AC2E88F3F80F31088F3
:10030000704700BFDE1A0020CB08C25C012301F059
:1003100007018B401A4214BF012000207047F8B536
:1003200005460C461746FFF7D3FF214606462846EA
:10033000FFF7EAFF18B121463846FFF7B3FF012364
:10034000E208A95C04F00704A3400B43AB54304619
:10035000BDE8F840FFF7CEBF2DE9F04105460E4657
:1003600014469846FFF7B4FF0746444502D94FF0BC
:10037000FF340CE021462846FFF7C6FF80B9012371
:10038000E20804F007018B40A95C0B43AB543846EC
:10039000FFF7B0FF002C05DA26B10698FFF782FFC1
:1003A0000134E2E72046BDE8F0810000044A1078FD
:1003B000431CDBB2182B28BF10231370704700BFFB
:1003C000300C002007B5054B0146009318221F236F
:1003D0000348FFF7C1FF03B05DF804FBEA4E0010CD
:1003E000181600204FF0E022936843F0005393600A
:1003F0007047000000231A4603481918C1E88F2FE0
:100400000133202BF9D17047D31A0020064B10304E
:100410009B6843F82010BFF35F8F00230349C1E8B6
:100420008F3F82F31088704700ED00E0DC1A002057
:100430004FF08030044B054A19460433934208605C
:10044000FAD162B6704700BF00E400E034E400E097
:100450000122430900F01F00824041B19B0003F1DB
:10046000604303F56143C3F880211A607047024975
:10047000203341F82320704700E100E0064B420999
:1004800053F82220012300F01F008340134214BFC1
:1004900001200020704700BF00E100E00122430975
:1004A000034900F01F008240403341F82320704789
:1004B00000E100E0024B10309B6853F820007047C9
:1004C00000ED00E008B5FFF7F5FF034BC01A2F2839
:1004D0008CBF0020012008BD340C002070B50546FB
:1004E0000C46EFF3108672B60D4BD3E8CF1F0122F6
:1004F0000029FAD1C3E8412F0029F6D1BFF35F8F5D
:10050000FFF7D8FF074B984203D0A04201D000F07C
:100510008DFE324621462846BDE87040FFF776BF83
:10052000DC1A0020110100102DE9F74F80468A46A1
:100530009146EFF3108372B60193654BD3E8CF1F5A
:1005400001220029FAD1C3E8412F0029F6D1BFF3D7
:100550005F8FDFF894B19BF90030002B01DA00F0D7
:1005600065FE0C239BF900605A4D08F1100203FB55
:1005700006539B7906EB46048BF80030564BA700D8
:100580009B6805EB840453F822104B1B2F2B22D9B8
:10059000524B994201D000F049FE0C234FF4214107
:1005A0007343EA18E9524E4B02372F44043BDB1BDE
:1005B000C3F34A036FEAC3436FEAD34353804BF656
:1005C00001539380FF2382F807909371C2F808A02B
:1005D00044F001013EE021F001000346002293F8BF
:1005E00007C0CC453DD8DFF804C1002A48D092F9B5
:1005F00006E002F1040BBEF1000F3EDB6FF00700D6
:100600009388C01B5B0542BF03F5FF1303F5FF533F
:100610001F335B1502330BEB4303401B0344C3F34F
:100620004A0343F46043043CA4EB0B04C4F34A04C0
:100630006FEAC4440C206FEAD444704394809671EE
:100640002A1845F800C0938082F806E082F80790E7
:10065000C2F808A04046019A03B0BDE8F04FFFF78A
:10066000D5BE93F90620002A05DB02EB420C1A46A0
:1006700005EB8C03B3E71A46B5E74BF60153D2E717
:100680004AF6AA2203465B1B5B415A43120D0C2318
:100690005E434FF42143AB53114BA919BE1C2E44AA
:1006A000043B9B1B0F4EC3F34A0333434B806FF055
:1006B0000703DB1B5B1B0344C3F34A0333438B80F9
:1006C0008A7181F80790C1F808A0C0F800C07FE7E0
:1006D000DC1A0020340C002000ED00E011010010B5
:1006E000640C002000E0FFFF0C1C00200148804744
:1006F000F0B5EFF30586F6B2EFF3108772B6214C32
:10070000D4E8CF2F0123002AFAD1C4E8423F002ABF
:10071000F6D1BFF35F8F4AF6AA2301461A4A891A17
:1007200049414B431B0D59B2184B40F00105D3F81A
:1007300008C05CF826C0AC4525460DD19B68144A1C
:1007400043F82620134B1A78197082710023C5E8EC
:100750008F3F87F31088F0BD1446002394F906609C
:100760008E4208D10C2404FB0323FF229A714BF61E
:1007700001529A80E6E70133042B04F10C04EDD119
:10078000E0E700BFDC1A0020340C002000ED00E0A0
:10079000110100100C1C002007B5074B0146009307
:1007A000002205230548FFF7D7FD0028A8BFC0F1A8
:1007B000330003B05DF804FB054F0010291C002036
:1007C000014B0B4403607047D31A002010B5044658
:1007D000FFF7ECFD01462046FFF7F2FFFF232371F0
:1007E000BFF35F8F10BD10B50446FFF7DFFD014674
:1007F0002046FFF7E5FFFF23A380BFF35F8F10BD07
:1008000038B50848084DA84200D338BD044654F80E
:10081000083B1BB1FFF7E7FF2046F4E7FFF7D6FFE1
:10082000FAE700BFD00C0020D80C002010B5044619
:100830000120FFF7C7FD034B03442360BFF35F8F25
:1008400010BD00BFD31A0020024B0B440360BFF35E
:100850005F8F7047D31A00200D4B10B51A68EFF365
:10086000108172B6D2E8CF4F0120002CFAD1C2E835
:10087000440F002CF6D1BFF35F8F1A680023C2E843
:100880008F3F81F3108840BF0020002110BD00BFC2
:100890009C1A0020000000002DE9F04F2DED028B86
:1008A00085B0EFF30582D2B2A34B103A9108A34D65
:1008B00018BF1D46E81A434202F00302434102EB0F
:1008C000830301929E4A9FED9A8B52F823400123A5
:1008D000019A93400093009A05F541535A60B4F988
:1008E0000860009B002EEB6353DB676906EB46084C
:1008F000284607EBC80BDBE9029A00F015FB4845D8
:1009000071EB0A0145DBBAF1000F71DBDBE9043161
:100910008C4A934256D108460B69029198470028A9
:1009200066D00299D1E9002352EA030160D0002B7E
:1009300053DAB9EB02006AEB030137F93830CBE93F
:100940000201002B25DBD4F8149003EB430209EBE2
:10095000C202D2E902C2604571EB020219DBA44671
:100960002CF8083F03EB430A09EBCA0EDEF80C2013
:100970000292DEF808209042029A71EB020204DB38
:1009800039F93A30F446002BECDA27F83830ACF875
:100990000060A388190448D5A37943B10023A3714B
:1009A000B4F9083004F108065A1C40F08180B4F90B
:1009B0000830002B80F2978040BF05B0BDEC028B61
:1009C000BDE8F08FBBF80220B4F9080092B242EA09
:1009D0000040984702460B46A6E72846CDE9022389
:1009E00000F0A2FA029A039B801843EB0101A4E7EE
:1009F00037F8383023812369EFF3108272B6D3E8D9
:100A0000CF0F01210028FAD1C3E8401F0028F6D1FA
:100A1000BFF35F8F6388002127F838302369668031
:100A2000C3E88F1F82F31088B3E72369EFF31081C7
:100A300072B6D3E8CF0F01220028FAD1C3E8402FC5
:100A40000028F6D1BFF35F8F4FF6FF72A388002016
:100A5000A2801BB22269C2E88F0F81F3108804F1D3
:100A60000809002B98DBCE46626903EB430002EBDA
:100A7000C001D1E902B7B4F9081000290DDB01EB80
:100A8000410802EBC80CDCF80C600296DCF8086048
:100A9000B345029E77EB060606DAAEF8003032F96F
:100AA000303022F83010DCE7E64632F93810E4E75F
:100AB000616903EB430001EBC002B2F802C031F9F7
:100AC00030701CF4004F0CD0B4F908C082ED028BDA
:100AD0009C4504D03780228921F8302023813B4671
:100AE00062E71646FBE7626903EB430302EBC303CD
:100AF000D3E90267B7F1FF3F08BFB6F1FF3F0DD062
:100B0000019BA96A05EB83021369701A5B1A98426C
:100B100003D32B6A00990B4200D11661284600F0DE
:100B200003FAB042B941BFF6DAAE45E7AFF3008051
:100B3000FFFFFFFFFFFFFFFF00800B4000000B40A7
:100B40007C1A002099080010F8B504461646C160CA
:100B50001F460D46FFF72AFC4FF0504226701268E0
:100B6000184B62704FF6FF7203442361BBB263817E
:100B7000013B2281A280638000221823BA4218D14F
:100B8000114F1249EB1B5F425F41114B06EB870788
:100B900043F82740012404FA06F638462E62FFF790
:100BA0009DFC05F5015521463846FFF751FC2E60A6
:100BB000F8BD03FB02F1606902F1FF3C20F801C0BF
:100BC0000132DBE7D31A002000800B4099080010A7
:100BD0007C1A002010B5094C23694BB90321084841
:100BE00000F090F91023032220460549FFF7ACFFDF
:100BF000BDE810400A210348FFF7E2BD7C0C00204D
:100C000000000B409C1A0020074A536A994206D8FC
:100C1000926A824205D2C81A18BF0120704700208C
:100C200070470120704700BF00000B40004870472C
:100C30007C0C00200146F0B50069EFF3108E72B60F
:100C4000D0E8CF5F0124002DFAD1C0E8454F002D38
:100C5000F6D1BFF35F8FB1F902504E6905EB450441
:100C60004FEAC40C002DA8BF36F80C004FF0000767
:100C7000A8BF488006EBC4040869C0E88F7F8EF3E4
:100C80001088BD4231DB0598C4E902232061069833
:100C90000B69606160880130C0F30E00012838BF25
:100CA0000120608040EA0540EFF3108272B6D3E87D
:100CB000CFEF0124BEF1000FF9D1C3E84E4FBEF1D2
:100CC000000FF4D1BFF35F8F8B8826F80C308D8036
:100CD0000B69C3E88F7F82F3108801220B789A405A
:100CE000CB6803F501535A60F0BD4FF0FF30FBE7CE
:100CF0002DE9F0479DF828700646DDE9088915467C
:100D00001C4647B12A4623463046CDE90889BDE84E
:100D1000F047FFF78FBF00F01BF9854264EB01013C
:100D20000029EFDA3846BDE8F0870346408970B500
:100D3000B0EB214F4FEA214201DC002070BD1824A6
:100D4000586904FB02001A69EFF3108472B6D2E806
:100D5000CF6F0125002EFAD1C2E8465F002EF6D1F2
:100D6000BFF35F8F428889B292B28A4214D142F4B3
:100D7000004242800120987100221969C1E88F2F3A
:100D800084F310880028D8D001221978DB688A40C3
:100D900003F501535A60D1E70020EDE74078704732
:100DA0002DE9FF41851F41F1FF37A84271EB070391
:100DB00038BF0025044638BF2F460E4600F0C8F85D
:100DC000281A67EB0103012873F1000306DA2046B5
:100DD000314604B0BDE8F04100F0C0B80023CDE9D1
:100DE0000133154B2A46009314483B46FFF780FF1A
:100DF0000028ECDBDFF8488028463946FFF704FF7F
:100E00000028E4D1D8F80030EFF3108272B6D3E8AE
:100E1000CFCF0121BCF1000FF9D1C3E84C1FBCF1C9
:100E2000000FF4D1BFF35F8FD8F80030C3E88F0F05
:100E300082F3108820BFDFE7590800107C0C0020E7
:100E40009C1A002038B504460D4600F081F84FF09A
:100E5000FF326FF00043201845EB0101824273EB33
:100E6000010438BF1946BDE8384038BF1046FFF7C7
:100E700097BF4FF47A71A0FB0101FFF7E3BF0000B9
:100E80002DE9F04304460D4685B0EFF30587FFB228
:100E900027B105B0BDE8F043FFF7B6BE174ED6F850
:100EA0000C9096F80080484600F03EF808F10408DF
:100EB00059F82830221AA3EB000365EB01019A428E
:100EC00071F1000103DB20BF20462946E1E70C4B0E
:100ED0003046009322462B46CDE90177FFF708FF05
:100EE000061E29462046D4DDFFF78EFE00B920BF3E
:100EF00031460248FFF719FFE6E700BF7C0C0020EF
:100F00005908001010B4054B054C064AA04214BF06
:100F10001846581C5DF8044BFFF701BA0A1C002064
:100F200000800B40204F00100346416A0A46986A31
:100F3000596A8A42FAD17047416A9942FCD3994270
:100F400002D1816A914200D37047416AF7E70000FD
:100F50000148FFF7E9BF00BF00000B4002460B4607
:100F60000148FFF7E9BF00BF00000B40F0B50C24BB
:100F7000444304F1804404F58034059E944662683D
:100F8000071FB242FFB238BF6660012F04F540521E
:100F900024D8012922D103251560A268D207FCD5E7
:100FA000226804F5805582EA4C1202F0E002012F1B
:100FB0002A6009D822684A4002F003022A6001220E
:100FC0008A40A1681142FCD04FF4006104F5005240
:100FD00011600B4A666042F82030F0BD4FF40065A6
:100FE0001560074D55F82020002AD9D06D69B5FB52
:100FF000F2F5013505EB4505033DFDD2D0E700BF15
:101000001C16002013B54FF480340094FFF7AEFF98
:1010100002B010BD014B53F8200070471C16002091
:1010200070B51D4CB4FBF1F4B2FBF4F2049C240344
:1010300044EA03430468002C0EDA046804F03F0419
:101040008C4209D18468C4F30B04944204D1C4686F
:1010500004F4EE249C421DD0104D0124A84214BF7C
:101060000E250F25AC400E4D0E4E2C6005F580551B
:101070002C60B56834EA0505FBD10160212182604E
:1010800000F540520432116001680029FCDAC360A7
:101090000823136070BD00BF001BB700008005402F
:1010A0000020024000000240024B1A68024B5A60C6
:1010B000704700BF541A002000800D404FF080435D
:1010C000114A10B5114C136003F5D0339C604FF0FA
:1010D000E06403F5402329B11C6028B94FF00042B9
:1010E0001A6010BD1460F8E74FF47A736FF07F4216
:1010F0005843074B904294BF18601A60FFF7D4FF23
:101100004FF08042034BEBE700B00D40F3FFFF01CF
:10111000541A002000A00D4010B403464FF0804444
:1011200010460A4A146004F558246BB1084A43F08B
:101130000103E261074A5A4022626162A362002110
:101140005DF8044BFFF7BABFE361F8E700B00D406C
:10115000D3C007B02D3FF84F0C235843012300F1B3
:10116000804000F58410416003607047002370B533
:10117000DB8A05460E46002242E800F2520254BFC6
:101180001021042144F252209847044633462A464F
:10119000A446BDE870400A214FF4817060470023E7
:1011A000DB8A002242E800F2520254BF10210421DF
:1011B000184708B50B46011E02DB22B943F0200395
:1011C0001846FFF7D3FF43F03003F9E7034AD2F89C
:1011D0002838002BFBD0BFF35F8F704700000E4014
:1011E0000021044B044ABFF35F8F43F8041B934272
:1011F000F9D170470C080E402C080E40FFF7F0BFE5
:101200004FF42A62054B06491A604FF48D72DA607A
:10121000044A11605A68002AFCDA704700800440D2
:1012200000B0FA0000A004407047000008B5014873
:10123000FFF738F8424F001038B5044C044DAC426B
:1012400000D338BD54F8043B9847F8E7704E0010BF
:10125000B04E0010054B064A06491A60064B074A75
:1012600013608A6833EA0202FBD170470020024013
:101270007F3BEFEF00000240F6FFF3030030024037
:10128000044BDB6CB3F5004F02BF4FF48022024BDE
:10129000DA64704700001150002011504FF0E02236
:1012A000044BD2F8881D0B43C2F8883D10EE300481
:1012B000704700BF030330006FF06042044B1A60B8
:1012C000044A9368DB4333F06043FAD1704700BFB0
:1012D000003002400000024010B545F25320FFF7F5
:1012E0005EFFBDE8104003460420184710B545F2E4
:1012F0005320FFF754FFBDE8104003460120184774
:10130000FFF778B810B50B490B4C0C48641AA410C1
:10131000442C224628BF4422920003F08DFC074B48
:10132000074A432C02D9074A936010BD43F8242092
:101330000134F6E70000001010010010000000204A
:101340001101001000ED00E0002373B5294DC5F830
:101350008430FFF755FF0122274BDA636A6C012ABC
:10136000FCD103221A63AC6B012CFCD102260525AB
:1013700021460523214A22480096FFF751FE2B46BD
:101380002146204A20480095FFF74AFE00223146B8
:1013900004201E4BFFF736FE2146284600221C4B38
:1013A000FFF730FE0022082011461A4BFFF72AFEF5
:1013B000002209201146174BFFF724FE00220620C9
:1013C0001146134BFFF71EFE002207201146104B5B
:1013D000FFF718FE0420FFF71DFE0F4D0024B0FBA1
:1013E000F5F5E0B229460134FFF7B6FE062CF8D138
:1013F00002B070BD0000014000300140002F68596C
:1014000000000540008C864700800540001BB700A7
:1014100080D1F008006CDC0240420F0086B003B4BB
:1014200051FC0804CDE9020151FC0904CDE9040195
:1014300051EC0A04CDE9060103BCF047BDE80050B9
:101440004EEC00C4BDE800504EEC01C4BDE80050B5
:101450004EEC02C400BD000000B5FFF7DFFF02E064
:1014600010FE30F4F8D441EC100443EC112400EEEB
:10147000010410EE010480EE200451EC10047047CA
:1014800000B5FFF7CBFF02E010FE30F4F8D441ECDA
:10149000100443EC112400EE010410EE210480EE50
:1014A000200451EC3004704700B5FFF7B7FF02E0AD
:1014B00010FE30F4F8D410B541EC100443EC1124C4
:1014C00051EC040453EC0524A0FB024C5FF0000E29
:1014D000E0FB03CEE1FB02CE4CEC20440024E1FB18
:1014E00003E444EC30E480EE200451EC5004BDE809
:1014F0001040704700B5FFF791FF02E010FE30F496
:10150000F8D441EC100443EC112451EC2104A0FB6D
:1015100001126FEA820252FB100052FB12F252FBE0
:101520001000A0EBD07C53EC04245CFB13F153ECD3
:101530001524A1FB022001FB030053EC4424A2EB81
:10154000000050FB1CF24FEA111312EB017043EB49
:10155000E27140EA515020EA915020F0070053EC2C
:101560007524A0FB023C53EC752400FB03CC01FB6B
:1015700002CC53EC0424ACEB824C40EA5C70A0F14A
:10158000010041EC400480EE200451EC70047047EF
:1015900000B5FFF743FF02E010FE30F4F8D440EC52
:1015A000700400EE010410EE210480EE200451ECE2
:1015B0003004704700B5FFF731FF02E010FE30F451
:1015C000F8D440EC600400EE010410EE210480EE3B
:1015D000200451EC3004704700B5FFF71FFF02E014
:1015E00010FE30F4F8D441EC800400EE010410EE5B
:1015F000010480EE400410EE1304704700B5FFF7BD
:101600000DFF02E010FE30F4F8D441EC800400EE4F
:10161000010410EE010480EE400410EE3304704724
:1016200000B5FFF7FBFE02E010FE30F4F8D441EC09
:10163000100443EC112400EE010410EE3004C0F35A
:101640000070704700B5FFF7E9FE02E010FE30F4CD
:10165000F8D443EC102441EC110400EE010410EE28
:1016600030F48CBF01200020704700BF00B5FFF7A9
:10167000D5FE02E010FE30F4F8D443EC102441EC27
:10168000110400EE010410EE30F42CBF0120002004
:10169000704700BF00B5FFF7C1FE02E010FE30F456
:1016A000F8D441EC100443EC112400EE010410EED8
:1016B00030F42CBF01200020704700BF00B5FFF7B9
:1016C000ADFE02E010FE30F4F8D441EC100443EC1F
:1016D000112400EE010410EE30F48CBF0120002034
:1016E000704700BF70472DE9F84F9846DDE90B4978
:1016F0000D9B15469A0706460F4623D02A460A9B9D
:1017000003EB040A1444A24220D10D9B9B0705D58C
:10171000A2EB050AD14505EB0A0420D82046BDE816
:10172000F88F434639462020B0470AF1010ACA45DE
:101730000AEB0B02F5D3A9EB04024C4588BF00224B
:101740002A44DCE7A246A5EB040BF0E702F1010B0B
:10175000434639461AF8010DB0475A46D3E7434687
:10176000224639462020B0470AF1010AD2E72DE986
:10177000F047DDE90D7616F0020F9DF82880DDE9CF
:101780000854DDE90BCE1FD106F001094FB1B9F1C4
:10179000000F06D0B8F1000F02D116F00C0F00D0E8
:1017A000013F4FF0300A04E0202C04D005F804A0DB
:1017B00001347445F8D3B9F1000F05D04FF030096A
:1017C000A74201D9202C2DD116F0100F1FD016F4EE
:1017D000806F2CD15CB3744501D0BC4227D1B4F1E9
:1017E000010E23D0BCF1100F46D1023C16F0200FA1
:1017F00028D1202C28D04FF0780C05F804C00134F3
:10180000202C21D04FF0300C05F804C00134202CDE
:101810001AD0B8F1000F23D04FF02D0C05F804C0FA
:10182000013412E005F804900134C9E77446BCF1B4
:10183000100FDBD0BCF1020FE2D1202C04D04FF00E
:10184000620CDAE7202C08D12024CDE90A76CDE914
:101850000854BDE8F047FFF746BF4FF0580CCCE7FF
:1018600016F0040F02D04FF02B0CD7E716F0080F3C
:10187000EBD04FF0200CD1E7BCF1020F7446C1D180
:10188000DDE72DE9F04391B0189D1A9E1D9F0DB91B
:1018900027F010077C0500D515B317F0200F14BFF3
:1018A0004FF0410E4FF0610EAC4600250DF12008BF
:1018B000AEF10A0EBCFBF6F906FB19C95FFA89F412
:1018C000B9F1090F94BF30347444E4B2B44508F858
:1018D000014B05F10105BCFBF6F401D3202D10D11D
:1018E0001C9C069705941B9CCDE903649DF86440FD
:1018F000CDE9015408AC0094FFF739FF11B0BDE801
:10190000F083A446D6E72DE9F04F95B0269ECDE9A9
:101910000A23DDE91E74DDE9229B57EA040308BFB0
:1019200026F010067205CDE9080102D557EA040336
:1019300037D016F0200F14BF4123612300250DF18D
:10194000300AA3F10A0821464A465B46384603F0AE
:1019500077FAD2B2092A94BF303242444F45D2B20C
:1019600074EB0B0405F101050AF8012B01D3202DBE
:1019700014D1259B06960593249BDDE90801CDE94A
:1019800003939DF88030CDE901530CAB0093DDE962
:101990000A23FFF7ECFE15B0BDE8F08F07460C46B2
:1019A000D1E70025E5E700002DE9F04F93B09DED6C
:1019B0001C7BCDE90C32DDE91E530E9353EC172B43
:1019C000CDE90801104619468DED067B209EFFF7F4
:1019D0002BFE80B9DDE906014FF0FF320E4BFFF719
:1019E00071FE40B9DDE906014FF0FF326FF480135C
:1019F000FFF72CFE90B1DDE908019DED067B0E9B03
:101A00008DED1C7BCDE91E53DDE90C32209613B021
:101A1000BDE8F04F00F08CB9FFFFEF7F0022DDE959
:101A200006010023FFF712FE002800F04281DDE9E5
:101A300006A303F1004B16F4806308BF06250F933D
:101A40005AEA0B03D046D94600F03681CBF30A5050
:101A5000A0F2FF30FFF7A0FDB1A3D3E90023FFF709
:101A600027FDB1A3D3E90023FFF7FAFCCBF313035F
:101A7000CDE90A0143F07F510022A34B504641F4C7
:101A80004011FFF701FD94A3D3E90023FFF710FDF8
:101A900002460B46DDE90A01FFF7E2FCFFF7A0FD75
:101AA0000446FFF779FD8EA3D3E9002380468946DB
:101AB000FFF7FEFC0022954BFFF7D2FCFFF790FDED
:101AC00089A3D3E90023074649464046FFF7F0FCC7
:101AD000804638468946FFF75FFD85A3D3E900239A
:101AE000FFF7E6FC02460B4640464946FFF7CCFCB2
:101AF00002460B46CDE90A23FFF7DAFCDDE90A23AB
:101B00008046894610461946FFF7AAFC0022CDE917
:101B100010017F4B40464946FFF7F0FC00227D4B09
:101B2000FFF79EFC02460B4640464946FFF7E6FC9F
:101B30000022794BFFF794FC02460B46404649468B
:101B4000FFF7DCFCDDE90A238046894600204FF0E0
:101B50008041FFF799FC02460B4640464946FFF795
:101B60007FFC02460B46DDE91001FFF7C7FC07F2D8
:101B7000FF370022694BFFF773FC00223B05FFF79C
:101B800097FC52465B4680468946FFF79BFD40B175
:101B90004046494600225F4BFFF7B0FC804689462D
:101BA000013C04F16303C62B8CBF052704273105D4
:101BB0001ED558EA090311D04FA3D3E9002350469C
:101BC0005946FFF76BFD002878D04DA3D3E90023D9
:101BD00050465946FFF73AFD00286FD00027A5422E
:101BE000C6BF2C1B04F1FF3500253C4646F4806639
:101BF0000E9B9F422CBF0023DB1B0A9316F00203AF
:101C00000F9304D0002F0A9B18BF00230A933CB106
:101C10005046594642464B46FFF770FC82468B467B
:101C2000DDE9060100220023FFF710FD10B10BF1E2
:101C300000439B46DDE9080126F4006304930A9BF8
:101C4000CDE900ABCDE90253DDE90C3200F070F8CC
:101C5000024657B316F0200F00F101050C9B0CBF94
:101C6000652045200999089EB047DDE90801052354
:101C7000002205930A23002CCDE9023207F1FF3739
:101C80004FEAD473B8BF64422A46019304970C9B71
:101C90000094FFF7F6FD0F9B024633B10D9BC41A6B
:101CA0000D9B1A190E9BA3420FD8104613B0BDE826
:101CB000F08FDDE906ABBEE6002472E7002D97D079
:101CC0000F9B002B94D0013D92E720200C9B09999B
:101CD000089DA8470134E3E761436F63A787D23FBC
:101CE00071A379094F930A401655B5BBB16B0240F9
:101CF000EF39FAFE422EE63F2D431CEBE2361A3F47
:101D00000000000080842E410000F83F0000E03F0A
:101D100000002C4000002440000018400000F03F6C
:101D2000FB799F501344D33FB3C8608B288AC63FCA
:101D30002DE9F04F97B0DDE920ABCDE90501DDE9F4
:101D40002257CDE90723504652465B465946249E0A
:101D5000FFF76AFC70B10323CDE922762193B64BDD
:101D60002093DDE90501DDE9072317B0BDE8F04F59
:101D7000FFF7B9BC4FF0FF326FF48013504659465D
:101D8000FFF764FC28B10423CDE922762193AB4B05
:101D9000E6E74FF0FF3250465946A94BFFF792FC59
:101DA00068B1A84A06F00403002B08BF0322A64B23
:101DB0001CBF13460422CDE922762192D0E750467B
:101DC00099A3D3E900235946FFF77CFC38B998A3BF
:101DD000D3E9002350465946FFF738FC68B1DDE9E6
:101DE0000723DDE90501CDE92376CDE920AB229576
:101DF00017B0BDE8F04FFFF7D7BD002200235046D3
:101E00005946FFF723FC002800F09A805B465246B3
:101E100000200021FFF738FB012382468B460993FF
:101E200016F4806400F08E80092D40F28E8000242C
:101E300030210EABA5F109020134202C03F8011B5F
:101E4000A5EB040901D09442F6D159465046FFF75C
:101E5000C7FB7E4B054603EBC90393ED007B8DED7D
:101E60000A7BFFF799FB02460B4650465946FFF79F
:101E70000BFBDDE90A23FFF71BFB02460B46CDE90E
:101E80000C23FFF7BFFB8046FFF798FB02460B468B
:101E9000DDE90C01FFF7F8FA02460B46CDE90C2309
:101EA00000226B4BFFF70EFC002851D008F101080F
:101EB0004046FFF783FB02460B46DDE90A01FFF7C8
:101EC000D9FB10B14FF000080135B9F1000F50D126
:101ED0002846FFF761FB02460B4650465946FFF77E
:101EE000D3FA00225A4B80468946FFF7AFFB48B928
:101EF000002240464946564BFFF7E4FB10B9E8077D
:101F000000D501350A210EAB1A19202C0AD095FBF9
:101F1000F1F001FB1055303502F8015B0134054644
:101F20000028F2D106F00302012A60D1002F5ED012
:101F3000099A12B916F00C0F00D0013F302245E08B
:101F400009906DE74FF006097FE7A94600247CE77A
:101F50000022DDE90C013E4BFFF778FB0028B4D1ED
:101F6000B8F1000F02D018F0010FAED008F101084F
:101F7000ABE70A210EAB2344202C0ED0B8FBF1F0C6
:101F800001FB1082B8F1090F02F1300209F1FF39AB
:101F900004F1010403F8012B11D83021A1440EAA49
:101FA000202CAFD04C4504F101030AD104F15802B2
:101FB0000DEB02042E2204F8202C1C46A2E78046DA
:101FC000DAE7A1541C46EBE71A550134BC420ED2A5
:101FD000202CF9D1CDE90034DDE90501DDE9072345
:101FE000CDE90276FFF77FFB17B0BDE8F08F202C1C
:101FF000F0D0099A3AB12D2104F158026A4402F84E
:10200000201C0134E6E7710704D504F158022B21A6
:102010006A44F4E73207DDD504F1580220216A440E
:10202000EDE700BFAFF300800000000065CDCD41BB
:102030000000000065CDCDC1B44F0010B84F0010B6
:10204000FFFFEF7FAB4F0010B04F0010A05000100B
:102050000000E03F08B100F0D3BB704710B1D1E9F8
:1020600000311847704700002DE9F04F914698461F
:10207000B74AB84B91B01A600B1E0A93B64B14BF07
:1020800083469B4600251A9E98F8000070B94D457E
:1020900038BF2A464B464FF000000A9928BF09F185
:1020A000FF32D847284611B0BDE8F08F252808F147
:1020B000010806D02A464B460A996C1CD84725468B
:1020C000E2E70023414611F8012B2B2A16D00AD84B
:1020D000202A16D0232A17D0A2F13000092834D89C
:1020E00000270A2418E02D2A05D0302AF4D143F025
:1020F00001038846E6E743F00203FAE743F00403EE
:10210000F7E743F00803F4E743F01003F1E78846EC
:1021100004FB0722A2F13007414611F8012BA2F17E
:1021200030000928F3D998F800202E2A52D198F8C7
:10213000011008F10102A1F13000092843F4806385
:102140003ED800244FF00A0E11E02A2A08D156F892
:10215000047B8846002FBCBF43F002037F42E2E7C6
:102160000027E0E702460EFB0411A1F130041046FF
:1021700010F8011BA1F1300CBCF1090FF2D9904607
:10218000424612F8011B6C292DD025D8682933D07E
:102190006A293BD04246904618F8010B672861D85F
:1021A000572836D8452808D084D9462800F01D8104
:1021B00047287FF47FAF43F4006343F020032EE110
:1021C0002A2906D156F8044B08F1020824EAE474DF
:1021D000D6E790460024D3E7742901D07A29D9D1D3
:1021E00043F48073D7E798F801106C29F8D143F4D1
:1021F000407308F10202CEE798F80110682902D076
:1022000043F08003C7E743F0C003F2E743F40073F1
:10221000C1E7A0F158020F2A3FF64CAF01A151F8D7
:1022200022F000BFC5220010B5200010B52000101C
:10223000B5200010B5200010B5200010B52000100A
:10224000B5200010B5200010B5200010C5220010E8
:1022500041240010C522001013240010EF230010A9
:1022600013240010A0F16901C9B20F293FF622AF73
:10227000012249F2410C8A4012EA0C0218D10A29C3
:1022800000F01D8107297FF415AF43F0210305936A
:102290000823CDE903431023CDE9012356F8043B7D
:1022A0002A46009358464B460A99FFF7EAFAAEE0F1
:1022B0006F2800F0668110D9782808D1102223F009
:1022C0000C0310E0582839D0622800F05C810A2203
:1022D00023F01003642806D0F1E769284FF00A02C2
:1022E00023F01003F6D1590548BF23F001036928F4
:1022F00003F4007101D0642844D111B3073626F0ED
:102300000706B24670685AF8081BCDE90773002328
:102310000593C30F0028029306940B46049202DA39
:102320004B4260EB4000CDE900304B462A46584610
:102330000A99FFF7E8FA05465646A5E643F020035A
:10234000BCE7D90506F1040A08D5316809E000BFE9
:1023500069200010501A0020E516001058060CD510
:102360003178CDE90224CDE9047300294FEAD17315
:102370000193B8BF4942009120E01906E5D5B6F9AE
:102380000010EEE779B1CDE907730023CDE904230E
:1023900006F1070A2AF0070A06940293FAE80223D4
:1023A000CDE90023C1E7D80506F1040A0DD5CDE932
:1023B0000473CDE902240191336800934B462A4609
:1023C00058460A99FFF75DFAB5E7590607D53178FF
:1023D000CDE904730023CDE902240193CBE73168F2
:1023E00013F0800F18BF89B2F2E743F02003CDE964
:1023F0000373073626F007060294F6E802235846D0
:10240000CDE900230A994B462A46FFF791FC054681
:102410003AE600F0DF00472801D143F40063CDE93C
:102420000373073626F007060294F6E8022358469F
:10243000CDE900230A994B462A46FFF7B5FAE6E7AD
:1024400013F0020426D04FF0010A6B1C0B932A46AE
:102450004B460A9916F8040BD84774B354460B9AA6
:1024600021E04B4620200A99D8470AEB05020AF1E1
:10247000010A5745F5D83A1E18BF0122002A07F174
:10248000FF3308BF002307F1010A1D4408BF4FF0C6
:10249000020ADAE7A246E8E7551C4B4620200A99D3
:1024A000D8472A460134BC42F6D3A7EB0A03574566
:1024B00038BF00230B9A1A440B920B9DE4E5324679
:1024C000002C52F8046B14BF21464FF0FF310B92E1
:1024D00032463144107808B1914211D1A2EB060A7C
:1024E00013F480620C9202D0A24528BFA24613F0DA
:1024F00002030D931BD1AAEB05032A460F9308E0B4
:102500000132E7E7531C0E9320204B460A99D84727
:102510000E9A0F9BD318BB42F4D3A7EB0A0357457F
:1025200038BF00230AF101021D4403EB020AAB1B72
:102530000E9304E01C464B462A460A99D8470E9B48
:10254000F51816F8010B28B10C9B002BF3D0631E75
:10255000002CEFD10D9B93B12A46AAEB050405E0B0
:10256000561C4B4620200A99D84732461319BB42C5
:10257000F6D3A7EB0A03574538BF00231D440B9E33
:1025800082E508229BE6022299E600BF1FB5CDE94D
:102590000201009302A9134603484FF0FF32FFF7F0
:1025A00063FD05B05DF804FB5D2000101FB5084A0F
:1025B0000346146844B100914FF0FF32054803A967
:1025C000A047012004B010BD00F028F92046F9E72B
:1025D000501A00205520001000BEFDE708B5FFF797
:1025E000FBFF000038B5FEF727FE044C044DAC425B
:1025F00000D338BD54F8043B9847F8E7B04E0010BC
:10260000BC4E0010034608461B68114618470000E0
:10261000437D2DE9F04704460D461646CBB101F146
:10262000FF3900210846DFF870808E4217DC8642B1
:1026300003DD311A236828449847002E07DD35440E
:1026400015F8013CA3F10D02534253412375BDE837
:10265000F087036811462846BDE8F0471847C1B126
:1026600099F80030A3F10D077B427B4119F8012F47
:102670004F1C0A2A0BD153B9814203DD091A236882
:1026800028449847404602212368984738463946EF
:10269000CBE7237DEAE700BFF0500010F8B5054610
:1026A000094B0A4E1C68071D0CB92C60F8BD236845
:1026B00043B133680BB19C4204D1394620462A68A5
:1026C000FFF7A6FF2469EFE7441600204C16002010
:1026D00038B50B680546802B0C4602D10846FFF73B
:1026E000DDFF23685A1C22601C44257138BD0000A0
:1026F00010B5FEF72DFC0A4A82184FF0FF3041F169
:1027000000036FF00041904271EB030438BF0246B2
:10271000BDE8104038BF0B46024802F09DBB00BF29
:1027200040420F00D00C0020014802F08DBB00BFDA
:10273000D00C00202DE9F74F0C461D460746914668
:10274000FFF7D6FF631C804603D1384602F0EAFA51
:1027500004464FF00A0B154B154EDFF85CA0002D18
:1027600018BF1E46134B1D6845B9B8F1000F01D0C4
:10277000FFF7DAFF204603B0BDE8F08F2B6893B176
:10278000DAF800300BB1AB420DD12246394628466B
:10279000B047B9F1000F06D0012228460DF107011C
:1027A0008DF807B0B0472D69DEE700BF1126001095
:1027B00005260010441600204C160020084A136815
:1027C00013B901B110607047834205D10029FAD1D5
:1027D000186910601961704703F110021B69EFE777
:1027E00044160020044B10B51C6804B910BD636882
:1027F00003B198472469F8E74416002000F090B927
:10280000012313B504468DF80700002219460DF187
:102810000700FFF78FFF204602B010BD38B5054610
:1028200002F080FA0123044601461A462846FFF7C3
:1028300081FFFFF7D7FF204638BD000070B5A2B07A
:1028400004460E46FFF754FF002322460193054637
:102850003346094801A9FFF799FE019B044613B1CD
:1028600001A8FFF71BFFFFF7BDFF0DB1FFF75CFFEE
:10287000204622B070BD00BFD12600100FB407B5AE
:1028800004A951F8040B0191FFF7D8FF03B05DF8DC
:1028900004EB04B0704770470022014B1A70704778
:1028A0000D1C00204B79FF2B0BD1887948B9CB79CF
:1028B000012B07D1082A05D98A78034B09201A7001
:1028C00070470020704700BF0D1C0020012070479A
:1028D000012908B51DD1114B91881B7899421AD155
:1028E0005378012B0ED1518811F4807F4FEA512289
:1028F00014BF90B24FF0FF3002F0010201F07F01EF
:10290000FEF757FC022B06D1002164220846FEF791
:1029100003FC012008BD0020FCE700BF0D1C0020C7
:1029200000487047BA5100100B46012B114609D1DF
:102930005378012B08D19388072B05D1A623034A8E
:1029400001F030B901207047002070471451001089
:102950000123037000487047F450001008B50B685D
:10296000B3F5966F05D100224FF0FF301146FEF708
:1029700020FC08BD024B1860024B1960704700BF75
:102980001016002014160020164B70B51A681AB3E2
:10299000EFF3108172B6D2E8CF4F0120002CFAD1AC
:1029A000C2E8440F002CF6D1BFF35F8F00220E481F
:1029B000596002701B68C3E88F2F81F310880024D0
:1029C0000A4E00253078FDF759FD40B13078FDF70B
:1029D00065FD2046294670BD4FF47A74F0E7002467
:1029E0000025F6E7741A00200F1C00200E1C0020A2
:1029F000014B1878FDF752BD0E1C002010B5FEF7F4
:102A0000A7FA114A82184FF0FF3041F100036FF02E
:102A10000041904271EB03043CBF02460B460B4859
:102A200002F01AFA70B14FF0FF30002100F038FDCB
:102A3000002001F0C5F90028F5D1BDE81040034899
:102A400002F002BA10BD00BF40420F00A01A0020E1
:102A500030B5002185B02C4802F006FAB8B100214B
:102A60004FF0FF3000F01CFD002001F085F9044616
:102A7000254802F0E9F9002C43D0244B1B68002BB9
:102A80003FD0234A106805B0BDE830401847214ABE
:102A90001368002B35D0EFF3108172B6D3E8CF5F07
:102AA0000124002DFAD1C3E8454F002DF6D1BFF324
:102AB0005F8F0125184C516023781268DBB22570B6
:102AC000C2E88F0F81F31088DBB9FEF7AFF8044638
:102AD000FEF73EFA10F57A724FF0FF3041F1000335
:102AE0006FF00041904271EB03053CBF02460B467C
:102AF00001200021CDE90110084920460091FEF790
:102B0000F7F805B030BD00BFA01A00201016002055
:102B100014160020741A00200F1C002089290010B0
:102B20004FF0504330B585B01C68FEF77FF8FEF7D4
:102B300035F9A04202D0002005B030BD0021274B5E
:102B400008461B7801F048FC254803680BB9FDF7DF
:102B50003DFE0120FDF720FE224C23492070C0B22B
:102B6000FDF7BCFC20780121FDF772FC0E20FDF77B
:102B7000A9FC88B10120FDF725FC01461B48FDF7A3
:102B800063FE00220E201A49FDF7CEFC19480121F0
:102B9000FFF714FE0120CFE7144BC3E90000FEF756
:102BA00045F80446FEF7D4F910F57A724FF0FF307D
:102BB00041F100036FF00041904271EB03053CBF0F
:102BC00002460B4601200021CDE901100A492046AA
:102BD0000091FEF78DF80028ADDBD7E7CC5200104E
:102BE000A01A00200E1C0020512A0010741A002088
:102BF000F1290010940C002089290010002001F018
:102C0000A5B8000070B504460D46FFF7F7FF18B9E8
:102C10006FF00204204670BD002001F0ADF80028DE
:102C2000F6D0FEF795F9164A82184FF0FF3041F1C1
:102C300000036FF00041904271EB03063CBF024677
:102C40000B46104802F008F90028E1D0FFF7D6FF44
:102C500080B1002001F090F860B121462A460020A2
:102C600001F096F8044608B96FF00204054802F036
:102C7000EBF8CFE700214FF0FF3000F011FCF3E755
:102C800040420F00A01A00202DE9F84307460E46E7
:102C9000FEF75EF9314A82184FF0FF3041F1000330
:102CA0006FF00041904271EB03043CBF02460B46BB
:102CB0002B4802F0D1F800284DD0FFF79FFF0028E5
:102CC00043D100200021274BC3E9000138E0002058
:102CD00001F0D6F8741B8442A8BF0446ACB122466A
:102CE0007919002001F0AEF8002104464FF0FF30C2
:102CF00000F0D6FB002001F063F8FEF729F9C8E9DF
:102D000000012544AE42E2DC1AE021464FF0FF30DC
:102D100000F0C6FB204601F053F8FFF76FFF78B1D3
:102D2000204601F0ADF80028ECD1FEF711F9D8E902
:102D3000003213EB090342F1000283428A41E1D2DF
:102D40000748BDE8F84302F07FB80025DFF814809B
:102D5000DFF81490D6E7BDE8F88300BF40420F00CB
:102D6000A01A0020580E002020A10700004870473C
:102D700054520010004870470052001010B504462D
:102D80001348037813B9112100F042F864B940F2F6
:102D90000942104B5A8001230133DBB20D485B001E
:102DA00043F44073038010BD052C0ED80A4B09492B
:102DB00053F824000023C25C0AB9DBB2ECE701330C
:102DC000132B21F8022FF6D1E6E70020EBE700BF36
:102DD000181C0020A81A0020E851001000B545F288
:102DE00047308BB0FEF7DBF901220346092101A829
:102DF00098470823054A05A911F8010D013B02F87F
:102E0000010BF9D10BB05DF804FB00BF101C0020D2
:102E1000002230B50C4D0139914201D9102A02D15E
:102E20000023835430BDD4435308EB5C04F0010409
:102E3000A400234103F00F042346092CD4BF3033F0
:102E4000373383540132E7E7101C002000F07F0382
:102E5000F0B51A4C5E0006EBD01504EB4515C7091A
:102E6000A87087F001006870002029839901E8703C
:102E7000EA761348DA00651877B10244AA620020A6
:102E80003E4404EB4616B26810604BB904EB47149D
:102E900063600C4BE360F0BD04320244AA60EEE7CD
:102EA000013B094ADB001FB1214413444B62F2E7A6
:102EB00004330C4413446360EDE700BF5016002058
:102EC000800010500001105008001050038BC27E8B
:102ED00008493F33022A23F03F030A6808BF5B001A
:102EE0001344C260044A0B60934201D9FEF79EB9B5
:102EF000704700BF581A0020FF0F105038B500F07F
:102F0000C7F80C234025124CFF22A3670E2011495D
:102F1000FDF70AFB2A4600210F4801F011FE0022AE
:102F200029461046FFF792FF002229468020FFF72E
:102F30008DFF01F095FF01204FF000534FF48032D8
:102F40002064E364054BC4F89030054BDA6438BD67
:102F500000001150310300205016002010D0010055
:102F60000020115001210E20FDF772BA0022024804
:102F7000114600F0ADB800BF70160020044B197068
:102F800021B14FF40032034BC3F89020704700BFCB
:102F9000D21A0020002011500B785B0606D14B7826
:102FA000052B01BF4B88024ADBB21360704700BF9C
:102FB00000001150CA7870B502F00302012A23D034
:102FC0008C78898804F07F062046C1F30A01FFF758
:102FD0003DFFBEB10D4DE40904EB460005EB40108A
:102FE00004EB4604FFF772FF05EB4412D368D17E71
:102FF00083F0A04383F48013526843EA816343F073
:1030000000431360012070BD0020FCE75016002033
:1030100001F026BF084608B5114600F07F02C0093E
:1030200000EB42001A46034B03EB401000F050F84F
:10303000012008BD50160020C80911F07F0102BF11
:10304000064AC0F102039366054B00EB41004FF4C2
:103050000062002103EB401001F0FABE0020115085
:103060005016002030B411F07F050DD00022074823
:103070006B0003EBD11300EB43136FF4006130BC22
:103080001846DA7001F0E4BE30BC704750160020DC
:1030900008B54FF080530A4A136002F5805213605E
:1030A000084B9968C94311F08051FAD14FF480520E
:1030B000054801F045FD0922044B5A6708BD00BFD1
:1030C000002002400000024000001050000011509B
:1030D000002310B5C38201238282837601610446F6
:1030E00001F0AAFE20B14FF40032074BC3F8902044
:1030F000204601F09DFE10B10123237710BD20462C
:10310000BDE8104001F090BE002011502DE9F041C3
:10311000002405462346194E194F3278DFF8708097
:10312000A2420DD9D8F8003013EB44130BD14FF065
:10313000E023D3F8F03DDB0700D500BEBDE8F08109
:103140009B1A07EB4313DB68284698473278013413
:10315000E4B2511CA1422346E2DA5422002109487C
:1031600001F0EEFC1022FF21074801F0E9FCBDE868
:10317000F0412022FF21054801F0E2BCD01A0020D6
:1031800068520010F51A0020F91A0020091B0020CF
:103190001410002070B50C4605461646486900F02C
:1031A00033FD3246284663690121BDE87040184767
:1031B0007047704700207047002070477047704785
:1031C00070477047024B5878003818BF012070478D
:1031D000F51A0020024B1878C0F38000704700BF3A
:1031E000F51A00202DE9F0472D4F05463B780E4695
:1031F000FF2B4FD149B94FF0E023D3F8F03DDB0767
:1032000000D500BE0020BDE8F087002154222548EB
:1032100001F096FC0022244C244B20461A70FDF746
:10322000D5FA234B23481C60234CFDF7FFFA2046B8
:1032300001F047FC214B1C60214B23B12148FFF7D3
:1032400087FB214B186000242346DFF87880DFF8E5
:103250007C9098F80020DFF870A0A2421CD9DAF820
:10326000003013EB4413C6D05B68002BC3D09847E3
:1032700098F800200134E4B2511CA1422346ECDA54
:10328000314628463D70FFF739FE0028B3D0284666
:10329000FFF768FE0120B6E79B1A09EB4313E3E74B
:1032A000C80C0020F51A002034130020091C00204F
:1032B0003C130020C00C0020AC0C00204013002068
:1032C00051290010D01A002014100020685200105C
:1032D00038B50E4B0C461D788B7813F0700F08D064
:1032E0004FF0E023D3F8F03DDB0700D500BE00200F
:1032F00038BD074B2046997801F0E1F80028EFD05F
:1033000021462846BDE83840FFF754BEC80C0020CF
:10331000F51A00202DE9F0478146DDE908670C46E3
:1033200090469A460025A84501DC01200AE0637812
:10333000052B09D04FF0E023D3F8F03DDB0700D593
:1033400000BE0020BDE8F087E37803F00303534597
:10335000F0D121464846FFF7BBFF0028EAD0A3780A
:103360000135DA0914BF3B70337023781C44DAE767
:10337000CB0901F07F02343303EB42030248034AD6
:103380001844116801F05AB8F51A00203C130020C7
:10339000CB0901F07F02343303EB42030248034AB6
:1033A0001844116801F070B8F51A00203C13002091
:1033B00070B5144C01F07F0604EB460404EBD11405
:1033C00094F834501048ED0704F13004007808D523
:1033D0004FF0E023D3F8F03DDB0700D500BE00201E
:1033E00070BD257945F001052571FFF713FE002812
:1033F000F6D1227960F300022271227960F3820211
:103400002271E5E7F51A0020C80C002010B50C4623
:103410000B4B1878FFF710FE0A4904F07F0301EB0D
:10342000430101EBD41191F8343043F0020381F8E9
:10343000343091F8343043F0010381F8343010BD5A
:10344000C80C0020F51A002010B50C460B4B18785C
:10345000FFF708FE0A4904F07F0301EB430101EB8B
:10346000D41191F8343023F0020381F8343091F80C
:10347000343023F0010381F8343010BDC80C002033
:10348000F51A0020054B01F07F0203EB420303EB2A
:10349000D11191F83400C0F340007047F51A0020B4
:1034A0002DE9F04FA44B87B01B78FF2B4DD0DFF8F0
:1034B0009492A24B1C686369EFF3108272B6D3E852
:1034C000CF0F01210028FAD1C3E8401F0028F6D110
:1034D000BFF35F8FA261204603A901F0FFF900232B
:1034E0006269C2E88F3FA36983F3108868B39DF8CF
:1034F0000D30013B072B00F2FD82DFE813F00800DE
:103500001300F202D702E3021C009302EB029DF8C3
:103510000C00FFF7FBFD00F06FFB9DF8103089F801
:103520000230C6E79DF80C00FFF7F0FD00F064FBE9
:10353000FFF745FEBDE7824A13784BB94FF0E02311
:10354000D3F8F03DDC0700D500BE07B0BDE8F08F32
:103550001378013BDBB21370137803F0FF00002BEC
:10356000A7D1784C9DF80C50237843F001032370C9
:1035700094F8343060F3000384F8343094F8343035
:1035800060F3820384F8343094F8353060F300033C
:1035900084F8353094F8353060F3820384F83530A0
:1035A00000F032FB9DF8102002F06003602B07D181
:1035B0004FF0E023D3F8F03DDD072AD500BE28E028
:1035C000402B0BD1604800F01FFB0121284604AAC4
:1035D000FFF7AAF900287FF46CAF1AE002F01F028F
:1035E000012A00F09681022A00F0CA81002ADFD168
:1035F000202B25D19DF814300F2B0AD8534A234491
:103600001B79127893420FD2514A116811EB431182
:1036100011D19DF80C000021FFF70EFD80219DF8CF
:103620000C00FFF709FD44E7511C9942F1DB4949C1
:103630009B1A01EB431104AA2846FFF7ABFDC9E72B
:10364000002BB5D19DF81130092BB1D801A252F849
:1036500023F000BFF1380010DF380010B135001042
:10366000CB380010B13500107D3600102138001025
:10367000B135001097360010A136001004A800F0F4
:10368000C9FA28469DF81210FFF770FC237843F022
:10369000020323700DE763788DF80A30012331E1CE
:1036A0009DF8126063789E4241D063785BB100213F
:1036B0002846FFF763FC2846FFF7AAFCA7782846B0
:1036C000FFF724FDA7706670002E00F0A680701E24
:1036D000C0B2FFF74FFB10B14378022B10D04FF070
:1036E000E023D3F8F03DDB0700D500BE4FF0E02328
:1036F000D3F8F03DDF0700D500BE0023637088E7F4
:10370000C37900F10906C3F38012C3F340131B0110
:1037100043EA4213227822F0300213432370438895
:10372000C3180093009BB34216D8FFF747FD284605
:1037300004A900F025FABCE6C80C002040130020C4
:10374000091C0020F51A002029290010D01A002099
:10375000141000206852001073780B2B02BF3378CE
:1037600096F803A0F618737818BF4FF0010A042BDF
:10377000B5D14FF00008C346009B9B1B9BB2019341
:10378000B74B1F78B74BB8452AD21F6817EB4817BD
:10379000A5D0019A3B693146284698470828024639
:1037A000B04B2FD9019981422CD3BAF1010F05D129
:1037B0003969AD4B994208BF4FF0020A0021CBB2E4
:1037C0009A4513D843463146A848019200F0A6FE18
:1037D000A34B019A1B78164401335B45A2DA7EE7BE
:1037E000A34AABEB070702EB4717D2E7B0780131EA
:1037F000034454FA83F31879FF287FF470AF83F8F9
:103800000480DCE7964A08F1010817785FFA88F827
:103810007A1C9045C346B6DD61E7FFF7D0FC86E72A
:10382000BDF812301A0AD8B2531E0E2B3FF6F1AE75
:1038300001A151F823F000BF75380010973800102F
:10384000B13800101336001013360010C5380010C0
:10385000973800101336001013360010133600107E
:1038600013360010133600101336001013360010F4
:103870008D380010FFF77AFA024600283FF498AE20
:103880001223284604A900F08DF9A3E6FFF748F8B3
:10389000024640B9BDE6022A07D1FFF76BFA02469D
:1038A00000283FF485AE5388EBE7FFF785FCEFE790
:1038B000BDF81410FFF762FA024600283FF4A9AEE3
:1038C0000378DEE7FFF776FCF6E7BDF81230012B50
:1038D0007FF49FAE237843F00803237027E7BDF8F9
:1038E0001230012B7FF495AE237823F00803F4E720
:1038F0002378C3F340129B0803F002031343ADF88F
:103900000A30022328460DF10A0204A900F04AF900
:10391000CFE59DF814300F2B3FF67BAE504A234481
:103920001B791278934222D24E4A116811EB43114F
:103930003FF46FAE284604AAFFF72CFC00287FF462
:10394000B8AD9DF8103013F060047FF462AE9DF8BE
:1039500011300A3B012B3FF65CAE00F055F99DF8A3
:1039600011300A2B7FF4E3AE8DF80A4096E6511C25
:103970009942FFF64EAE3E499B1A01EB4311D9E73F
:103980009DF8141011F0700F7FF412AE01F07F0259
:10399000334804EB420202EBD112127D00788242DE
:1039A00013D23048066806EB4216DBB99DF8113099
:1039B00003F0FD02012A19D0002B7FF4F9AD28464F
:1039C000FFF760FDADF80A009BE7461C9642C0F287
:1039D0009A80274E121A06EB4216002BE6D031468B
:1039E00004AA29E6002E3FF414AEF8E7BDF8122031
:1039F00022B9012B284612D1FFF726FD002E3FF4F5
:103A000058AD314604AA2846FFF7C4FB002000F059
:103A1000FBF894F83530DE073FF54BAD87E6FFF74E
:103A2000F5FCEBE79DF8101001F07F0409EB440270
:103A300002EBD11292F8343023F0010382F83430D3
:103A400092F8343023F0040382F8343094B9059BA3
:103A50009DF811209DF80C0000F0EAF829E500BF60
:103A6000D01A002014100020793F0010091B0020FC
:103A700068520010264B127D1B789A420DD2254BBE
:103A80001B6813EB42133FF459AD9C699DF811205C
:103A9000059B9DF80C00A0470BE5581C9042FFF6D3
:103AA0004DADD21A1C4B03EB4213EEE799F80030F0
:103AB000D8077FF5FEAC99F80000C0F3C000FFF70F
:103AC0007FFBF6E499F80030D9077FF5F2ACFFF7F9
:103AD00078FBEEE4049B002B3FF4EBAC0598984791
:103AE000E7E499F80330DA077FF5E3AC0498FFF7D1
:103AF00060FBDEE44FF0E023D3F8F03DDB077FF519
:103B0000D8AC00BED5E4002B7FF483AD00264DE792
:103B1000D01A00201410002068520010124B70B50B
:103B20009989DA8905468C1AA4B293F90000402CD1
:103B300028BF402400280EDA914212D0996822460C
:103B40000A4801F079F88021084A23462846BDE852
:103B50007040FFF72DBC91424FF00001F4D10A46AE
:103B6000F3E780210022F0E720130020E01200207C
:103B7000C943002301F080011A46FFF719BC000079
:103B800030B4074C0546224608680B46496803C214
:103B900000222846C4E9022230BC1978FFF7E8BFAA
:103BA00020130020F8B5134E0C463746054608682A
:103BB0004968B26003C70021F181E1888B4228BFC8
:103BC0000B46B38189B14BB142B94FF0E023D3F832
:103BD000F03DDB0700D500BE002005E02846FFF7DA
:103BE0009DFF0028F1D00120F8BD28462178FFF77D
:103BF000BFFFF6E72013002014220021014800F047
:103C00009FBF00BF20130020014B1861704700BF09
:103C10002013002010B50246044C0068234651686A
:103C200003C30023C4E9023310BD00BF20130020EA
:103C300070B5284C1E462378C909B1EBD31F054641
:103C400013D03EB14FF0E023D3F8F03DDB073FD473
:103C5000002070BD2146FFF79FF923691BB1224662
:103C60000321284698470120F3E794F90030A06823
:103C7000002B05DB0028EBD03246174900F0DCFFB3
:103C8000A268E38932443344A260E2889BB29A423C
:103C9000E38101D03F2E17D8236933B92846217814
:103CA000FFF766FF0028DED1CCE702212846094A4B
:103CB000984701460028F1D12846FFF7BDF9802139
:103CC0002846FFF7B9F9CEE72846FFF727FFE9E7CF
:103CD00000BEBDE720130020E01200202DE9F041D6
:103CE0000646FFF76FFA50B3FFF774FA054630BB8C
:103CF0004FF412747443134B1F19FA78FAB110344D
:103D00001C44204600F0D8FD3F2818D92846F978F1
:103D1000FFF72EFB98B1204600F0CEFD3F28F97842
:103D200008D9094A284602EBC6124023BDE8F041F3
:103D3000FFF73EBB2846BDE8F041FFF729BBBDE8D1
:103D4000F08100BF981000201810002010B5044624
:103D5000FFF738FA08B9002010BDFFF73BFA00283A
:103D6000F9D14FF41272034802FB0400007900F00D
:103D70000100F1E7981000204FF4127208B5034BD0
:103D800002FB003000F06EFD08BD00BFA81000204F
:103D900038B54FF6FF739A4228BF1A4604464FF4CF
:103DA0001270064B92B200FB043000F0B6FD0546DF
:103DB0002046FFF793FF284638BD00BFA81000201B
:103DC0002DE9F0410446FFF7FDF970B3FFF702FA61
:103DD000064650BB4FF4127808FB04F8174F08F161
:103DE00024053D44284600F03DFDF0B147443046EF
:103DF000B978FFF7BDFAC0B14022114B02EBC414F1
:103E00001C442146284600F088FDB978054688B153
:103E1000034622463046FFF7CBFA48B94FF0E0237D
:103E2000D3F8F03DDB0700D500BE0020BDE8F081EF
:103E30002846FBE7FFF7ACFAF7E700BF9810002031
:103E4000181000204FF4127370B50C4D044603FB9C
:103E500000554FF6FF739A4228BF1A46284692B281
:103E600000F0ADFD0646284600F0FCFC3F2802D9D4
:103E70002046FFF7A5FF304670BD00BFBC100020F4
:103E80004FF4127208B5034B02FB003000F014FD32
:103E900008BD00BFBC100020F7B50025194C4FF439
:103EA00012720021204600F04BFE174B04F138013E
:103EB0001D70FF2363714FF4E133A36008234FF4B7
:103EC0008072A37304F110000123009500F09DFCA3
:103ED00001234FF48072009304F59C7104F50E7772
:103EE00004F1240000F091FC04F510763846FCF74C
:103EF0006DFC3046FCF76AFCC4E90757C4E90C6561
:103F000003B0F0BD98100020D11A0020002230B577
:103F100011461446084B186B21B10AB100225A63AE
:103F2000012030BD1D6A0DB1C3E907110028F4D08E
:103F300001221C631146EEE798100020002310B503
:103F40000A480B4C036003712378DA0702D410305F
:103F500000F0B7FD23789B0702D4064800F0B1FDBE
:103F6000BDE810400121034800F0C6BD98100020B4
:103F7000D11A0020BC100020F7B54B790646022B61
:103F80003CD18B79022B39D1224FBB787BBB0925E1
:103F90008B783B700B78CC186378242B20D195421A
:103FA00019D96378042B12D163790A2B0FD11A4BDC
:103FB0002778019301330093022330461A46E11912
:103FC000FFF7A8F998B10E3517FA85F5ADB20020C4
:103FD000FFF784FE13E023781D44ADB21C44DBE7F9
:103FE000052BDED121463046FFF772F950B94FF06C
:103FF000E023D3F8F03DDB0700D500BE00252846BE
:1040000003B0F0BDA3787B7023781D44ADB21C448F
:10401000C7E700BF981000209A1000200B461146F9
:10402000127870B502F06002202A47D1244E8A88A7
:104030003478944242D14A78203A032A3ED8DFE8C5
:1040400002F002141731012B05D107231D4AFFF797
:10405000A9FD012070BD032BFBD11B4B002BF8D019
:1040600000201849FEF77AFCF3E7012BF1D1ECE7C9
:10407000012B02D1FFF784FDEBE7032BE9D14C883C
:10408000124804F0010585F00101347100F034FD9F
:104090000F4B002BDDD029460020C4F34002AFF3C4
:1040A0000080D6E7012BE5D0032BD2D1094B002BA2
:1040B000CFD000204988AFF30080CAE70020C9E7CD
:1040C00098100020A01000205D290010BC100020D6
:1040D00000000000000000002DE9F047334C1D46B1
:1040E000E37880468B420F4612D1314EAAB2314658
:1040F00004F1100000F063FC2E4BB3B92E4B5BBBF8
:104100000020FFF7EBFDA378BB422DD001200AE091
:10411000A3788B42F7D04FF0E023D3F8F03DDB07D4
:1041200000D500BE0020BDE8F0876379FF2BE5D005
:1041300006EB050904F1100A4E45DFD016F8013BE5
:1041400062799A42F8D1504600F09DFB0028F3D1E5
:104150006179AFF30080EFE7184800F094FB002886
:10416000CED1AFF30080CBE7154B13B10020AFF3F6
:1041700000800020FFF724FE0028C7D1114800F07E
:1041800071FB0028C2D1002DC0D015F03F05BDD174
:104190004046A178FFF7ECF80028B7D02B462A4616
:1041A0004046A178FFF704F9B0E700BF981000205F
:1041B000181000200000000000000000A8100020DF
:1041C00000000000BC100020F0B5144C85B04FF486
:1041D00013720021204600F0B3FC04F5A6734027BB
:1041E0004FF48076009300230D4D1A461946029530
:1041F0000397019604F5947000F0A2F904F12803E6
:10420000009300233D4401221946CDE9016503973F
:10421000201D00F095F905B0F0BD00BFC4130020CB
:104220004413002010B5054C204600F0AEF9A4F56B
:10423000927000F0AAF9012010BD00BFEC1400201C
:1042400038B50025064C04F59870257000F039FC4F
:1042500004F10C0000F035FC84F82951657138BD7B
:10426000C41300202DE9F84F894649798046FF297B
:104270002FD1344D99F8004095F8291149BB6E793A
:104280003EBB4C44A71899F8022005F5947A2A7091
:1042900005F10C0B99F80410F2B2914202D806E035
:1042A000227814446278052A05D0BC42F8D3A4EBE6
:1042B000090080B20EE0BC42F9D221464046FFF729
:1042C00007F848B94FF0E023D3F8F03DD80700D500
:1042D00000BE0020BDE8F88FA278D20917D058465A
:1042E00000F0EFFBA27800206A71A288C2F30A02F4
:1042F000A2F500714A424A41297962F341012971CC
:10430000114900F078F9227801361444C2E70F48C9
:1043100000F0D7FBA27895F8281185F82921A2880A
:104320004046C2F30A02A2F500735A425A4162F3B0
:10433000410185F82811514600F093F90028E2D197
:10434000C0E700BFC4130020C8130020F4140020ED
:1043500038B505461A481C4690F829318B4216D1CB
:10436000B0F8343133B1D0F82C11A2B200F5987006
:1043700000F025FB134B23B100201349A2B2AFF389
:1043800000802846114900F06CF9012038BD4379BE
:104390008B4212D10E4B5BB928460E4900F02BF927
:1043A0000028F2D1224628460A4900F0F0F8ECE74E
:1043B0000020A1B2AFF30080EEE70020E6E700BFE7
:1043C000C41300200000000044130020EC1400205F
:1043D00000000000C81300200B4613B599B9012452
:1043E000184601A9ADF80440FEF7FCFE40B94FF0B5
:1043F000E023D3F8F03DDA0700D500BE02B010BDCF
:104400000D4B1C70FAE7012801D80B7843B94FF027
:10441000E023D3F8F03DDB0700D500BE0020EDE738
:10442000054C012B235401D00120E7E7FEF7DAFE0B
:104430000028F9D1EBE700BFF31A0020F8B50478A3
:10444000054614F001040E461CD103785A07C3F345
:10445000800713D44FF0FF31304600F0E1FC2C7898
:1044600014F001040CD12B785B0704D401242B78C1
:1044700043F004032B70304600F0E6FC2046F8BD04
:104480003C46F8E70024F9E770B50D4604464FF0C6
:10449000FF31284600F0C4FC2378C3F380065B0795
:1044A00008D5237813F0010211BF0026237862F3A8
:1044B00082032370284600F0C7FC304670BD838815
:1044C000C078C3F30A0300F00300022814D00328C5
:1044D0001CD001280ED1022940F2FF3208BF4FF450
:1044E00080629A420ED24FF0E023D3F8F03DDB0712
:1044F00000D500BE00207047022904D1B3F5007F2B
:10450000F1D101207047402BFBD9ECE7022914BF01
:1045100040224FF480629A42F3D2E4E730B50A4475
:10452000914200D330BD4C78052C06D18C7804F034
:104530007F0500EB4505E4092B550C782144EFE796
:10454000F7B515460278089FBDF8246061F30002B4
:104550000446394600F8082B00933246012300F048
:1045600054F957B14EB104F11C063046FCF72EF950
:104570000DB135460026C4E9055601200A9B63604B
:10458000BDF82C30638003B0F0BD01207047F8B552
:104590000546084610F8083B0C4613F0020F0CBF06
:1045A00040274FF40077164600F05CF908B1002070
:1045B000F8BD002EFBD0013F3742F8D12378DA074F
:1045C000F5D428466178FEF7D3FE0028EFD0237893
:1045D00013F0010307D04FF0E023D3F8F03DDB07E1
:1045E000E5D500BEE3E71A4628466178FEF7E0FE0F
:1045F0000028DDD1EFE770B501F108050646284631
:104600000C4600F02FF9B8B12378D80714D43046FF
:104610006178FEF7ADFE78B128466288616800F0E7
:104620007CF923780546A8B1D90707D54FF0E023D8
:10463000D3F8F03DDA070BD4002070BD0346626862
:1046400030466178FEF7B4FE0028EFD02846F4E744
:1046500000BEF1E7DB07EFD430466178FEF798FE45
:10466000EAE78A89F8B506460C460B78F2B9DF0707
:104670000ED44978FEF77CFE50B122786388D507C6
:1046800008D54FF0E023D3F8F03DDA0700D500BE9F
:104690000020F8BD61783BB162683046FEF788FEC5
:1046A0000028EED06088F4E71A46F6E701F1080723
:1046B00013F0020F38460CBF40254FF4007500F090
:1046C000FBF88542E4D82378D807E1D430466178F6
:1046D000FEF74EFE0028DBD0384600F0EDF88542AC
:1046E000237815D8D9076288CBD46D420540ADB286
:1046F000954228BF1546617845B162682B46304621
:10470000FEF756FE0028BCD02846C2E72A46F5E749
:10471000DB07BDD430466178FEF73AFEB8E70A44BD
:1047200092B291424FEA400001D8824201DB121A54
:1047300092B21046704738B50546D41A0846A98883
:10474000A4B29A423CBF04EB4104A4B2B4B1A1426A
:1047500005D2914294BF521A521893B26B8199427A
:1047600009D9EA882968C2F30E0202FB031100F09E
:1047700063FA012038BD5B1A9BB2F0E72046F9E7E7
:104780002DE9F047BDF8204086881D1BADB2A3423D
:104790003CBF05EB4605ADB207468846F5B1AE42D3
:1047A00006D235469E4294BF9B1B9B199CB2448106
:1047B000954228BF1546A64213D9FA88A6EB0409EC
:1047C00039681FFA89F9C2F30E0A4D4552460AFBB1
:1047D000041109D840466A4300F02EFA2846BDE885
:1047E000F087A41BA4B2E6E719FB0AF91FFA89F9BE
:1047F0004A464046AE1B00F01FFAA21912FB0AF20D
:10480000396892B208EB0900E6E7B2F5004FF8B557
:1048100004460F4616461D4622D8C06818B14FF010
:10482000FF3100F0FDFA206918B14FF0FF3100F0C0
:10483000F7FA9DF81830C5F30E0545EAC335002395
:10484000E06863812760A680E580238108B100F0DD
:10485000FBFA206908B90120F8BD00F0F5FAFAE783
:104860000020F9E7024613895289808892B29BB2F0
:10487000934236BFC2EB40029B1A9B189BB29842F0
:1048800028BF184670470289438992B29BB2D31A57
:1048900058425841704703894289818892B29BB23D
:1048A000934236BFC2EB41029B1A9B189BB29942BE
:1048B0008CBF00200120704703894189828889B21A
:1048C0009BB28B4236BFC1EB42015B1A5B189BB2B5
:1048D0009A4286BFD01A80B20020704738B504468D
:1048E00000690D4618B14FF0FF3100F099FA2289A6
:1048F0006389294692B220469BB2FFF71CFF61896B
:104900000246054689B2A088FFF709FF6081206949
:1049100008B100F099FA284638BD73B5044600691D
:104920000D46164618B14FF0FF3100F079FA238991
:104930006289294692B20092204632469BB2FFF726
:104940001FFF61890246054689B2A088FFF7E7FE8E
:104950006081206908B100F077FA284602B070BD86
:10496000F8B50446C0680F4618B14FF0FF3100F0AB
:1049700057FA26892046B6B2FFF78DFF10B1E579C8
:10498000ED0913D03046A388834215D9E288236805
:10499000C2F30E02394602FB003000F04DF901224D
:1049A0003146A088FFF7BBFE01252081E06808B1F1
:1049B00000F04AFA2846F8BDC01A80B2E4E72DE9B3
:1049C000F84F06460F46154642B3C06818B14FF07F
:1049D000FF3100F025FAF379B6F808807189DB0918
:1049E000B6F804901FFA88F889B21AD1884539BF01
:1049F000C1EB49044444A8EB01018CB238BFA4B216
:104A00004C452EBF0024A9EB0404A4B2A54228BF44
:104A100025462DBBF06808B100F016FA2846BDE81F
:104A2000F88F4D4509D3F388A5EB0905C3F30E03B1
:104A300003FB057788464D46EBE788454FEA490278
:104A400036BF531AA8EB010343449BB22B44934255
:104A500006DBA9EB0502484692B2FFF760FE8046EE
:104A600044464C4517D2F288A9EB040A30681FFA75
:104A70008AFAC2F30E0BAA455A460BFB04000ED36A
:104A800039466A4300F0D8F82A464146B088FFF715
:104A900046FE3081BEE7A4EB0904A4B2E1E71AFBAD
:104AA0000BFA1FFA8AFA5246394600F0C5F8A5EB10
:104AB0000903E21812FB0BF2306892B207EB0A010D
:104AC000E0E710B50446C06818B14FF0FF3100F0C0
:104AD000A7F9206918B14FF0FF3100F0A1F90023C8
:104AE000E0686381238108B100F0AEF9206908B164
:104AF00000F0AAF9012010BD38B50446C0680D4683
:104B000018B14FF0FF3100F08BF9206918B14FF068
:104B1000FF3100F085F9E379E06865F3C713E371CD
:104B200008B100F091F9206908B100F08DF9012079
:104B300038BD0000002301461A46184600F020B98F
:104B400070B586074AD0541E002A41D0CAB2034627
:104B500001E0013C3CD303F8012B9D07F9D1032C64
:104B60002FD9CDB20F2C05EB052505EB054538D91E
:104B7000A4F1100C03F1100E1A462CF00F064FEAA8
:104B80001C1CB6441560103242F80C5C42F8085CFC
:104B900042F8045C7245F5D10CF1010214F00C0FDF
:104BA00004F00F0C03EB021213D0ACF1040323F05A
:104BB00003030433134442F8045B9A42FBD10CF024
:104BC00003042CB1C9B21C4403F8011B9C42FBD165
:104BD00070BD64461346002CF4D1F9E70346144631
:104BE000BDE71A46A446E0E738B5074D074C2C1B35
:104BF000A41005D0013C55F8043D9847002CF9D18C
:104C0000BDE8384000F008B9BC4E0010BC4E0010A2
:104C1000704700BF704700BF704700BF704700BFBC
:104C2000704700BF704700BF0120704701207047E8
:104C3000704700BF704700BF844641EA000313F08D
:104C4000030349D1403A23D30B6803604B684360A8
:104C50008B688360CB68C3600B6903614B694361F8
:104C60008B698361CB69C3610B6A03624B6A4362E0
:104C70008B6A8362CB6AC3620B6B03634B6B4363C8
:104C80008B6B8363CB6BC36340304031403ADBD2E4
:104C900030320BD30B6803604B6843608B688360D2
:104CA000CB68C36010301031103AF3D20C3205D308
:104CB00051F8043B40F8043B043AF9D2043208D0DE
:104CC000D2071CBF11F8013B00F8013B01D30B8850
:104CD00003806046704700BF082A13D38B07B1D00A
:104CE00010F00303AED0C3F10403D21ADB071CBFDC
:104CF00011F8013B00F8013BA4D331F8023B20F846
:104D0000023B9FE7043AD9D3013A11F8013B00F87E
:104D1000013BF9D20B7803704B7843708B7883702A
:104D20006046704720F0030110F00300C0F100005E
:104D300051F8043B00F1040C4FEACC0C6FF0000278
:104D40001CBF22FA0CF213434FF0010C4CEA0C2C5E
:104D50004CEA0C4CA3EB0C0222EA030212EACC123E
:104D600004BF51F8043B0430F4D0C2F1000102EA60
:104D70000102B2FA82F2C2F11F0200EBD2007047C8
:104D80002DE9F8431C4D064698460F462868914683
:104D9000FFF748FF194B1C682CB3286865681F2D66
:104DA00024DC4EB96B1C0235636044F82570FFF7B4
:104DB00041FF0020BDE8F88304EB85010123022EAA
:104DC000C1F8889003FA05F3D4F8882142EA030277
:104DD000C4F88821C1F80881E4D1D4F88C211A43A1
:104DE000C4F88C21DEE7064C1C60D6E7FFF722FFF3
:104DF0004FF0FF30DEE700BFCC0C00201010002089
:104E0000800E0020024B13B10248FFF793BE70479B
:104E100000000000E94B0010F8B500BF00000000E2
:104E20005FF800F0F70100205FF800F07106002045
:104E30005FF800F0810500205FF800F05D050020BC
:104E40005FF800F02D0900205FF800F02B02002031
:104E50005FF800F02D0600205FF800F0C30100208D
:104E60005FF800F0610200205FF800F011010020FF
:104E7000D9120010551200108112001049130010B1
:104E8000B9120010FD11001001130010CD11001017
:104E90000108001005130010D50B00102912001096
:104EA000ED1200109D120010E503001031040010F7
:0C4EB000054E0010DD2D0010E90100107F
:104EC000555342204344432054657374202D20439E
:104ED0006F756E743A2025640A000A2A2A2A205027
:104EE000414E4943202A2A2A0A004E6F20737069D6
:104EF0006E6C6F636B732061726520617661696CA3
:104F000061626C65004E6F20757365722049525165
:104F1000732061726520617661696C61626C650005
:104F2000486172647761726520616C61726D2025E1
:104F30006420616C726561647920636C61696D6580
:104F400064004861726420617373657274004D6916
:104F50006E53697A6552656C00626F6F74325F7769
:104F600032357130383000322E322E300074696E96
:104F70007963697263756974735F7468756D62795A
:104F80005F636F6C6F725F727032333530007465BF
:104F900073745F7573625F6D696E696D616C004AF1
:104FA000616E203331203230323600666E692B005C
:104FB000666E69006E616E00666E692D0055534223
:104FC00020737464696E202F207374646F7574008D
:104FD0005261737062657272792050690050696322
:104FE0006F00426F617264204344430052657365F1
:104FF0007400556E68616E646C656420495251207E
:10500000307825780A006570202530325820776185
:105010007320616C726561647920617661696C618D
:10502000626C650043616E277420636F6E74696EF5
:1050300075652078666572206F6E20696E61637495
:105040006976652065702025303258000600525080
:10505000D3F075424E4F001006005250E182887F17
:10506000594F001006005250ABB36053674F001009
:1050700006005250BBFF3CB66D4F00100600525068
:10508000861C03028E4F0010060052505422A29D2F
:105090009F4F001005005250DE65F468AC5E0010B2
:1050A000000000000000F03F00000000000024406D
:1050B00000000000000059400000000000408F4048
:1050C000000000000088C34000000000006AF840B3
:1050D0000000000080842E4100000000D0126341D7
:1050E0000000000084D797410000000065CDCD414D
:1050F0000D0A0000000000009728001000000000CA
:1051000099280010A5280010D1280010CD280010E3
:10511000000000000A00000000000306A6000800CE
:10512000020002009C001400030057494E555342F0
:1051300000000000000000000000800004000100EA
:10514000280044006500760069006300650049009E
:105150006E00740065007200660061006300650007
:10516000470055004900440000004E007B006200EB
:1051700063003700330039003800630031002D0030
:1051800037003300630064002D00340063006200C8
:1051900037002D0039003800620038002D0039003A
:1051A00031003300610038006600630061003700A1
:1051B0006200660036007D000000050F2100011C22
:1051C000100500DF60DDD88945C74C9CD2659D9EE7
:1051D000648A9F00000306A6000100060052505397
:1051E000B4F4A1BD4F00100000000000D04F00102B
:1051F000DD4F0010181C0020E24F0010EC4F001093
:1052000009025400030100807D080B000202020025
:105210000009040000010202000405240020010529
:10522000240100010424020605240600010705816B
:105230000308001009040100020A0000000705022B
:10524000024000000705820240000009040200003D
:10525000FF00010512011002EF0201408A2E090031
:10526000000101020301000000000000993E00104F
:105270000D3F00103D3F0010793F00101D40001011
:10528000D94000100000000000000000C9410010DB
:1052900025420010414200106542001029290010EB
:0852A000514300100000000062
:0852A80090F9FF7F01000000F6
:1052B0004C500010585000106450001070500010F6
:1052C0007C5000108850001094500010DB510010EA
:1052D000034630B50268EFF3108472B6D2E8CF5FB0
:1052E0000120002DFAD1C2E8450F002DF6D1BFF301
:1052F0005F8F93F90420002A0BDA4FF0504201200F
:1053000012681A711A680023C2E88F3F84F310886C
:1053100030BD09B90020F5E70A60FBE72DE9F0414F
:105320001D464FF05043044616460027D3F8008030
:105330002268EFF3108372B6D2E8CF0F0121002864
:10534000FAD1C2E8401F0028F6D1BFF35F8F94F96D
:105350000420002A226808DA84F80480C2E88F7FDB
:1053600083F310880120BDE8F081C2E88F7F83F3CA
:1053700010883046294600F02FFD0028D8D00020A4
:10538000F1E773B501A9044616461D46FFF7A0FFD5
:1053900078B94FF050439DF9042093F900309A42B8
:1053A00007D032462B46204602B0BDE87040FFF7DA
:1053B000B5BF02B070BD70B50C46054600F014FDD7
:1053C00002460B464FF47A714FF0FF30E4FB0123A5
:1053D0006FF00041904271EB03043CBF02460B4664
:1053E0002846BDE87040FFF799BF10B50368EFF39A
:1053F000108272B6D3E8CF4F0121002CFAD1C3E856
:10540000441F002CF6D1BFF35F8FFF2301680371A7
:105410000023C1E88F3F82F3108840BF10BD000019
:105420000022114608B5D30003F1A043013203F571
:1054300080130F2A9960D960F5D14FF47072002162
:10544000034800F0C5FC034B034A1A6008BD00BFC7
:1054500090160020581A0020800110502DE9F04FBE
:1054600000254FF0010A4FF002091E4B1E4FD3F8E2
:1054700058B085B0BBF1000F01D0202D02D105B08E
:10548000BDE8F08F1BEA0A0F28D0EC43C5F34608AD
:1054900004F0010419FB0846144B07EB461630468E
:1054A000C3F858A000F0F8F9B0B104EB480407EBDA
:1054B0004414E38A4FF4E06103930023A278ADF82B
:1054C000041001A801218DF808208DF8093000F0A2
:1054D000FFF9304600F084F92BEA0A0B4FEA4A0A3A
:1054E0000135C7E700001150501600200030115060
:1054F000F0B5674B85B0D3F8985015F4003430D030
:105500000026644B644C9A6A644B1A60334694F8E4
:105510003B20022A08D194F83A702FB194F83C301D
:10552000002B40F0AA803B460136102E04F14004C7
:10553000EDD13BB95A4B1B7823B94FF40032594B8C
:10554000C3F890204FF44072514B01219B6C01A88D
:10555000C3F30A03ADF8042002934FF4003400F0C3
:10556000B7F9EA0603D544F01004FFF777FFEB0321
:1055700046D5494E44F48034B37E9BB102224A4B57
:105580001A66434A536E9F07FCD54FF440520021E0
:10559000414800F02BF9404800F022F90222414B2B
:1055A0005A661A66012396F83A20F3709AB13E4A79
:1055B0001366A2F50052536ED807FCD54FF4405243
:1055C00000213A4800F012F9384800F009F90122A8
:1055D000344B5A661A664FF4C0620123ADF80420BA
:1055E000334A86F8233092E8030004AA02E9030054
:1055F000194601A800F06CF94FF40032294B1A65E6
:10560000E90414D50026224B44F480541E60FFF7B1
:1056100007FF4FF48073012101A8ADF804308DF825
:10562000086000F055F94FF400221E4B1A656A0419
:105630000CD54FF48063012101A8ADF8043000F0CF
:1056400047F91022174B44F480441A652B040DD5FA
:105650004FF4A063012101A8ADF8043000F038F93F
:105660004FF400620F4B44F400441A65AC420CD076
:10567000104884EA050100F0B3FB002304F1200088
:1056800084F83C3000F0D4F84DE705B0F0BD00BF21
:105690000000115000000B4050160020481600205A
:1056A000D21A002000301150002011507016002036
:1056B00000001050F24F00100346F0B5808A1A8B9C
:1056C000DC78824228BF0246251E18BF012584F0DF
:1056D0000104801ADC705C78988242F4806040EAB1
:1056E000453074B94FF0FF361C69DD6806EB811652
:1056F0003544A618B4420BD11C6940F40040144450
:105700001C619B8A0BB940F4804001B10004F0BDDC
:1057100014F8017B05F8017FECE70000074B024617
:10572000186C10F0020007D19378DB0905D0D07E09
:10573000831E5842584170470020704700001150A6
:1057400008B5FFF7EBFF50B1054B986A054BA0F584
:1057500048701B68C01AC6288CBF0020012008BDF5
:1057600000000B40481600208268034630B51068E0
:1057700001B1000C5A78C0F3090042B9DA8A024438
:10578000DA821A8B824284BF00229A8230BDDA68A4
:1057900002EB81111A690C18013A8C4206D1DA8A9F
:1057A0000244DA821A6902441A61EAE711F8015BDD
:1057B00002F8015FF1E710B50446836800211B6819
:1057C000FFF7D2FF63681B685B0008D5238B834219
:1057D00005D12046BDE810400121FFF7C5BF10BD2F
:1057E0000023C0E9043383767047000010B5836856
:1057F00009B11C682140A2B1540541EA020110D54B
:105800001A68520503D58178074800F0E9FA21F4B7
:1058100080621A60054B1B6C9B0702D40C23033B70
:10582000FDD28368196010BD0650001000001150B1
:10583000436870B5002105461C68FFF73DFF154B16
:1058400040F480561B6C13F0020FAB7818D013F0A5
:105850007F0318BF0123AA8AB2B1ABB90121284640
:10586000FFF72AFF24F00054064344F0A0446B687D
:10587000324628461C600021BDE87040FFF7B6BFE5
:10588000DB0983F00103E6E724F0A04444F0005470
:10589000EDE700BF0000115038B5857E04461DB904
:1058A00081780A4800F09CFAFFF785FFA38A33B19C
:1058B0002046FFF745FF20B1012323770025284626
:1058C00038BD2046FFF7B4FFF8E700BF24500010B2
:1058D0002DE9F04343780446023B0E4685B0042B85
:1058E00000F2A480DFE813F093000500C500CD00AE
:1058F000F10000252B46774FDFF8E8813A78DFF892
:10590000E891AA4240F2C680D9F8003013EB451363
:1059100040F0C3803A780135EDB2511CA9422B46C4
:10592000EFDA6D4F3B78580737D53B784FF00008DA
:1059300023F004033B702378CDF806808DF8043003
:1059400005238DF80530654BCDF80A801D68ADF84C
:105950000E806B69EFF3108272B6D3E8CF0F01218E
:105960000028FAD1C3E8401F0028F6D1BFF35F8FAB
:105970002846AA6101A900F027FA6B69C3E88F8F56
:10598000AB6983F31088002840F08F804FF0E0234C
:10599000D3F8F03DD90700D500BEFB78DA0733D540
:1059A000237800258DF8043003238DF805306368D3
:1059B000CDF80650CDF80A500293484BADF80E5082
:1059C0001C686369EFF3108272B6D3E8CF0F012130
:1059D0000028FAD1C3E8401F0028F6D1BFF35F8F3B
:1059E0002046A26101A900F0EFF96369C3E88F5F67
:1059F000A36983F3108800285FD14FF0E023D3F828
:105A0000F03DDB0700D500BE05B0BDE8F083002106
:105A1000314B1A7822F001021A701A7822F0020231
:105A20001A7059701A7861F382021A702B4B1D6834
:105A30006B69EFF3108272B6D3E8CF0F0121002813
:105A4000FAD1C3E8401F0028F6D1BFF35F8FAA61E7
:105A50002146284600F0B8F900236A69C2E88F3F62
:105A6000AB6983F310880028C7D03246617820786C
:105A700028E0194B1A78D707C6D51A7842F00402E5
:105A8000D3E7154A1378DD07BED5137823F0040356
:105A90001370CBE79B1A08EB4313DB69002B3FF431
:105AA00039AF61682078984734E732469DF8051091
:105AB0009DF8040000F084F96FE732469DF8051068
:105AC0009DF8040000F07CF99EE7054A1378013345
:105AD000DBB2DDE7D01A0020F51A002040130020C9
