:020000041000EA
:10000000002008205D0100101B0100101D010010E0
:100010001101001011010010110100101101001058
:100020001901001019010010190100101F01001022
:10003000110100101901001021010010230100100E
:100040001101001011010010110100101101001028
:100050001101001011010010110100101101001018
:100060001101001011010010110100101101001008
:1000700011010010110100101101001011010010F8
:1000800011010010110100101101001011010010E8
:1000900011010010110100101101001011010010D8
:1000A00011010010110100101101001011010010C8
:1000B00011010010110100101101001011010010B8
:1000C00011010010110100101101001011010010A8
:1000D0001101001011010010110100101101001098
:1000E0001101001011010010110100101101001088
:1000F0001101001011010010110100101101001078
:100100001101001011010010110100101101001067
:10011000EFF30580103800BE00BE00BE00BE00BE7A
:1001200000BE00BEF2EB88710C15001028150010FF
:10013000A001001090A31AE7D3DEFFFF42012110B7
:10014000FF01000040150000793512AB4FF00000B0
:100150001E49086006C881F3088810474FF05040D8
:10016000006810B14FF00000F2E70DA40ECC00299A
:1001700002D000F012F8F9E71549164A002000E015
:1001800001C19142FCD11449884714498847144958
:10019000884700BEFDE701C901C29A42FBD3704700
:1001A00028150010100100206002002078160010B1
:1001B0000000082000000820781600100010082019
:1001C00000100820000000007047000008ED00E06B
:1001D0006002002028060020A50F00100502001074
:1001E0009D0F0010F8B500BF08B5034B1BB10349C4
:1001F0000348AFF3008008BD00000000C8050020E0
:1002000018140010192070B500F030F84FF00103F9
:10021000192243EC44204FF000061C46192544ECFB
:100220004050FA2000F047FC46EC4050FA2000F025
:1002300042FCF3E70C4B10B503EB800253F820307F
:1002400002F5805483F0400303F0C00323604FF4B1
:100250008073C00000F1804000F5203002F540526C
:100260004160136010BD00BF048003404FF00002E6
:1002700042EC440042EC40000521FFF7DBBF0000E8
:100280000FB407B5049C074800F068FF3CB105A90E
:100290002046019100F06AFE034800F05FFF012054
:1002A00000F07AFE1814001026140010EFF31080EE
:1002B00072B6064BD3E8CF1F01220029FAD1C3E85A
:1002C000412F0029F6D1BFF35F8F70470F06002042
:1002D0000023034AC2E88F3F80F31088704700BFB5
:1002E0000F060020CB08C25C012301F007018B4000
:1002F0001A4214BF012000207047F8B505460C468D
:100300001746FFF7D3FF214606462846FFF7EAFFC8
:1003100018B121463846FFF7B3FF0123E208A95C74
:1003200004F00704A3400B43AB543046BDE8F8404B
:10033000FFF7CEBF044A1078431CDBB2182B28BF4E
:1003400010231370704700BF380200204FF0E022E6
:10035000936843F0005393607047000000231A46EF
:1003600003481918C1E88F2F0133202BF9D17047AA
:1003700004060020064B10309B6843F82010BFF3A2
:100380005F8F00230349C1E88F3F82F310887047D5
:1003900000ED00E00D0600204FF08030044B054AD0
:1003A0001946043393420860FAD162B6704700BF21
:1003B00000E400E034E400E00122430900F01F0003
:1003C000824041B19B0003F1604303F56143C3F8F0
:1003D00080211A6070470249203341F8232070477A
:1003E00000E100E0024B10309B6853F8200070479A
:1003F00000ED00E070B505460C46EFF3108672B6CE
:100400000D4BD3E8CF1F01220029FAD1C3E8412FB9
:100410000029F6D1BFF35F8FFFF7E4FF074B984247
:1004200003D0A04201D000F0A5FC32462146284668
:10043000BDE87040FFF79EBF0D06002011010010BF
:10044000014B0B44036070470406002010B50446BE
:10045000FFF770FF01462046FFF7F2FFFF232371ED
:10046000BFF35F8F10BD10B50446FFF763FF014671
:100470002046FFF7E5FFFF23A380BFF35F8F10BD8A
:1004800038B50848084DA84200D338BD044654F892
:10049000083B1BB1FFF7E7FF2046F4E7FFF7D6FF65
:1004A000FAE700BF58020020600200200D4B10B593
:1004B0001A68EFF3108172B6D2E8CF4F0120002CFA
:1004C000FAD1C2E8440F002CF6D1BFF35F8F1A684F
:1004D0000023C2E88F3F81F3108840BF0020002135
:1004E00010BD00BF000600202DE9F04F2DED028B5E
:1004F00085B0EFF30582D2B2A34B103A9108A34D19
:1005000018BF1D46E81A434202F00302434102EBC2
:10051000830301929E4A9FED9A8B52F82340012358
:10052000019A93400093009A05F541535A60B4F93B
:100530000860009B002EEB6353DB676906EB4608FF
:10054000284607EBC80BDBE9029A00F00FFB484591
:1005500071EB0A0145DBBAF1000F71DBDBE9043115
:100560008C4A934256D108460B690291984700285D
:1005700066D00299D1E9002352EA030160D0002B32
:1005800053DAB9EB02006AEB030137F93830CBE9F3
:100590000201002B25DBD4F8149003EB430209EB96
:1005A000C202D2E902C2604571EB020219DBA44625
:1005B0002CF8083F03EB430A09EBCA0EDEF80C20C7
:1005C0000292DEF808209042029A71EB020204DBEC
:1005D00039F93A30F446002BECDA27F83830ACF829
:1005E0000060A388190448D5A37943B10023A371FF
:1005F000B4F9083004F108065A1C40F08180B4F9BF
:100600000830002B80F2978040BF05B0BDEC028B14
:10061000BDE8F08FBBF80220B4F9080092B242EABC
:100620000040984702460B46A6E72846CDE902233C
:1006300000F09CFA029A039B801843EB0101A4E7A7
:1006400037F8383023812369EFF3108272B6D3E88C
:10065000CF0F01210028FAD1C3E8401F0028F6D1AE
:10066000BFF35F8F6388002127F8383023696680E5
:10067000C3E88F1F82F31088B3E72369EFF310817B
:1006800072B6D3E8CF0F01220028FAD1C3E8402F79
:100690000028F6D1BFF35F8F4FF6FF72A3880020CA
:1006A000A2801BB22269C2E88F0F81F3108804F187
:1006B0000809002B98DBCE46626903EB430002EB8E
:1006C000C001D1E902B7B4F9081000290DDB01EB34
:1006D000410802EBC80CDCF80C600296DCF80860FC
:1006E000B345029E77EB060606DAAEF8003032F923
:1006F000303022F83010DCE7E64632F93810E4E713
:10070000616903EB430001EBC002B2F802C031F9AA
:1007100030701CF4004F0CD0B4F908C082ED028B8D
:100720009C4504D03780228921F8302023813B4624
:1007300062E71646FBE7626903EB430302EBC30380
:10074000D3E90267B7F1FF3F08BFB6F1FF3F0DD015
:10075000019BA96A05EB83021369701A5B1A984220
:1007600003D32B6A00990B4200D11661284600F092
:10077000FDF9B042B941BFF6DAAE45E7AFF300800C
:10078000FFFFFFFFFFFFFFFF00800B4000000B405B
:10079000E0050020E9040010F8B504461646C160E3
:1007A0001F460D46FFF7C6FD4FF0504226701268F7
:1007B000184B62704FF6FF7203442361BBB2638132
:1007C000013B2281A280638000221823BA4218D103
:1007D000114F1249EB1B5F425F41114B06EB87073C
:1007E00043F82740012404FA06F638462E62FFF744
:1007F00001FE05F5015521463846FFF7DDFD2E6067
:10080000F8BD03FB02F1606902F1FF3C20F801C072
:100810000132DBE70406002000800B40E9040010F1
:10082000E005002010B5094C23694BB903210848A5
:1008300000F08AF91023032220460549FFF7ACFF98
:10084000BDE810400A210348FFF7FABD3C02002032
:1008500000000B4000060020074A536A994206D860
:10086000926A824205D2C81A18BF01207047002040
:1008700070470120704700BF00000B400146F0B5F3
:100880000069EFF3108E72B6D0E8CF5F0124002D1F
:10089000FAD1C0E8454F002DF6D1BFF35F8FB1F913
:1008A00002504E6905EB45044FEAC40C002DA8BF69
:1008B00036F80C004FF00007A8BF488006EBC404D0
:1008C0000869C0E88F7F8EF31088BD4231DB059840
:1008D000C4E90223206106980B69606160880130D9
:1008E000C0F30E00012838BF0120608040EA0540B7
:1008F000EFF3108272B6D3E8CFEF0124BEF1000F00
:10090000F9D1C3E84E4FBEF1000FF4D1BFF35F8FB2
:100910008B8826F80C308D800B69C3E88F7F82F3BB
:10092000108801220B789A40CB6803F501535A6076
:10093000F0BD4FF0FF30FBE72DE9F0479DF8287040
:100940000646DDE9088915461C4647B12A46234676
:100950003046CDE90889BDE8F047FFF78FBF00F0CA
:1009600019F9854264EB01010029EFDA3846BDE848
:10097000F0870346408970B5B0EB214F4FEA214222
:1009800001DC002070BD1824586904FB02001A69BC
:10099000EFF3108472B6D2E8CF6F0125002EFAD1A2
:1009A000C2E8465F002EF6D1BFF35F8F428889B25E
:1009B00092B28A4214D142F40042428001209871DE
:1009C00000221969C1E88F2F84F310880028D8D03D
:1009D00001221978DB688A4003F501535A60D1E798
:1009E0000020EDE72DE9FF41851F41F1FF37A842C7
:1009F00071EB070338BF0025044638BF2F460E466B
:100A000000F0C8F8281A67EB0103012873F100030E
:100A100006DA2046314604B0BDE8F04100F0C0B827
:100A20000023CDE90133154B2A46009314483B4679
:100A3000FFF782FF0028ECDBDFF8488028463946C4
:100A4000FFF70AFF0028E4D1D8F80030EFF3108256
:100A500072B6D3E8CFCF0121BCF1000FF9D1C3E8C2
:100A60004C1FBCF1000FF4D1BFF35F8FD8F80030FA
:100A7000C3E88F0F82F3108820BFDFE7AD040010BA
:100A80003C0200200006002038B504460D4600F068
:100A900081F84FF0FF326FF00043201845EB010161
:100AA000824273EB010438BF1946BDE8384038BFB5
:100AB0001046FFF797BF4FF47A71A0FB0101FFF7D3
:100AC000E3BF00002DE9F04304460D4685B0EFF387
:100AD0000587FFB227B105B0BDE8F043FFF7BCBE04
:100AE000174ED6F80C9096F80080484600F03EF875
:100AF00008F1040859F82830221AA3EB000365EB2B
:100B000001019A4271F1000103DB20BF2046294612
:100B1000E1E70C4B3046009322462B46CDE90177A6
:100B2000FFF70AFF061E29462046D4DDFFF794FE94
:100B300000B920BF31460248FFF71BFFE6E700BFC0
:100B40003C020020AD04001010B4054B054C064AD1
:100B5000A04214BF1846581C5DF8044BFFF7CDBBEC
:100B60002406002000800B40281400100346416A30
:100B70000A46986A596A8A42FAD17047416A99428C
:100B8000FCD3994202D1816A914200D37047416AF5
:100B9000F7E700000148FFF7E9BF00BF00000B4086
:100BA00002460B460148FFF7E9BF00BF00000B40BB
:100BB000F0B50C24444304F1804404F58034059ED0
:100BC00094466268071FB242FFB238BF6660012FC9
:100BD00004F5405224D8012922D103251560A268CA
:100BE000D207FCD5226804F5805582EA4C1202F047
:100BF000E002012F2A6009D822684A4002F003026D
:100C00002A6001228A40A1681142FCD04FF40061A1
:100C100004F5005211600B4A666042F82030F0BDC6
:100C20004FF400651560074D55F82020002AD9D0F3
:100C30006D69B5FBF2F5013505EB4505033DFDD2C8
:100C4000D0E700BF9405002013B54FF48034009422
:100C5000FFF7AEFF02B010BD014B53F82000704704
:100C60009405002070B51D4CB4FBF1F4B2FBF4F216
:100C7000049C240344EA03430468002C0EDA04684D
:100C800004F03F048C4209D18468C4F30B049442FD
:100C900004D1C46804F4EE249C421DD0104D0124FC
:100CA000A84214BF0E250F25AC400E4D0E4E2C60F1
:100CB00005F580552C60B56834EA0505FBD1016067
:100CC0002121826000F54052043211600168002940
:100CD000FCDAC3600823136070BD00BF001BB700BF
:100CE0000080054000200240000002400C235843D1
:100CF000012300F1804000F58410416003607047DB
:100D00000023DB8A002242E800F2520254BF102185
:100D100004211847034AD2F82838002BFBD0BFF330
:100D20005F8F704700000E400021044B044ABFF360
:100D30005F8F43F8041B9342F9D170470C080E40B3
:100D40002C080E40FFF7F0BF4FF42A62054B06490E
:100D50001A604FF48D72DA60044A11605A68002AF2
:100D6000FCDA70470080044000B0FA0000A00440A4
:100D70007047000008B50148FFF782FA4A140010D6
:100D800038B5044C044DAC4200D338BD54F8043B94
:100D90009847F8E7D013001010140010054B064ACE
:100DA00006491A60064B074A13608A6833EA020252
:100DB000FBD17047002002407F3BEFEF0000024074
:100DC000F6FFF30300300240044BDB6CB3F5004F39
:100DD00002BF4FF48022024BDA64704700001150CA
:100DE000002011504FF0E022044BD2F8881D0B4335
:100DF000C2F8883D10EE3004704700BF0303300096
:100E00006FF06042044B1A60044A9368DB4333F08E
:100E10006043FAD1704700BF00300240000002403A
:100E200010B545F25320FFF76BFFBDE810400346B5
:100E30000420184710B545F25320FFF761FFBDE8C5
:100E40001040034601201847FFF788BA10B50B4938
:100E50000B4C0C48641AA410442C224628BF442290
:100E6000920000F0B9F9074B074A432C02D9074A10
:100E7000936010BD43F824200134F6E70000001011
:100E800010010010000000201101001000ED00E032
:100E9000002373B5294DC5F88430FFF755FF0122B3
:100EA000274BDA636A6C012AFCD103221A63AC6B0C
:100EB000012CFCD10226052521460523214A224882
:100EC0000096FFF7CFFE2B462146204A204800958A
:100ED000FFF7C8FE0022314604201E4BFFF7B4FE88
:100EE0002146284600221C4BFFF7AEFE00220820B8
:100EF00011461A4BFFF7A8FE002209201146174B96
:100F0000FFF7A2FE002206201146134BFFF79CFEBE
:100F1000002207201146104BFFF796FE0420FFF732
:100F20009BFE0F4D0024B0FBF5F5E0B229460134DD
:100F3000FFF7DCFE062CF8D102B070BD00000140C6
:100F400000300140002F685900000540008C8647A2
:100F500000800540001BB70080D1F008006CDC0267
:100F600040420F0008B100F0EBB870471FB5084AC7
:100F70000346146844B100914FF0FF32054803A9BD
:100F8000A047012004B010BD00F0E8F82046F9E7C2
:100F9000C4050020650F001000BEFDE708B5FFF78F
:100FA000FBFF000038B5FFF7EBFE044C044DAC42EC
:100FB00000D338BD54F8043B9847F8E710140010EC
:100FC00018140010034608461B6811461847000015
:100FD000437D2DE9F04704460D461646CBB101F19D
:100FE000FF3900210846DFF870808E4217DC864208
:100FF00003DD311A236828449847002E07DD354465
:1010000015F8013CA3F10D02534253412375BDE88D
:10101000F087036811462846BDE8F0471847C1B17C
:1010200099F80030A3F10D077B427B4119F8012F9D
:101030004F1C0A2A0BD153B9814203DD091A2368D8
:101040002844984740460221236898473846394645
:10105000CBE7237DEAE700BF0115001010B5FFF7CD
:1010600099FD0A4A82184FF0FF3041F100036FF0FA
:101070000041904271EB030438BF0246BDE81040C6
:1010800038BF0B46024800F09FB900BF40420F0036
:1010900058020020014800F093B900BF5802002018
:1010A0002DE9F74F0C461D4607469146FFF7D6FF40
:1010B000631C804603D1384600F004F904464FF023
:1010C0000A0B154B154EDFF85CA0002D18BF1E460D
:1010D000134B1D6845B9B8F1000F01D0FFF7DAFFD7
:1010E000204603B0BDE8F08F2B6893B1DAF80030EA
:1010F0000BB1AB420DD1224639462846B047B9F173
:10110000000F06D0012228460DF107018DF807B027
:10111000B0472D69DEE700BFD10F0010C50F0010EA
:10112000BC050020C0050020044B10B51C6804B9A4
:1011300010BD636803B198472469F8E7BC05002037
:10114000012313B504468DF80700002219460DF15E
:101150000700FFF7A5FF204602B010BD38B50546D1
:1011600000F0B0F80123044601461A462846FFF76E
:1011700097FFFFF7D9FF204638BD00000023014646
:101180001A46184600F0CCB838B5074D074C2C1B52
:10119000A41005D0013C55F8043D9847002CF9D126
:1011A000BDE8384000F008B91814001018140010F9
:1011B000704700BF704700BF704700BF704700BF57
:1011C000704700BF704700BF012070470120704783
:1011D000704700BF704700BF844641EA000313F028
:1011E000030349D1403A23D30B6803604B68436043
:1011F0008B688360CB68C3600B6903614B69436193
:101200008B698361CB69C3610B6A03624B6A43627A
:101210008B6A8362CB6AC3620B6B03634B6B436362
:101220008B6B8363CB6BC36340304031403ADBD27E
:1012300030320BD30B6803604B6843608B6883606C
:10124000CB68C36010301031103AF3D20C3205D3A2
:1012500051F8043B40F8043B043AF9D2043208D078
:10126000D2071CBF11F8013B00F8013B01D30B88EA
:1012700003806046704700BF082A13D38B07B1D0A4
:1012800010F00303AED0C3F10403D21ADB071CBF76
:1012900011F8013B00F8013BA4D331F8023B20F8E0
:1012A000023B9FE7043AD9D3013A11F8013B00F819
:1012B000013BF9D20B7803704B7843708B788370C5
:1012C0006046704720F0030110F00300C0F10000F9
:1012D00051F8043B00F1040C4FEACC0C6FF0000213
:1012E0001CBF22FA0CF213434FF0010C4CEA0C2CF9
:1012F0004CEA0C4CA3EB0C0222EA030212EACC12D9
:1013000004BF51F8043B0430F4D0C2F1000102EAFA
:101310000102B2FA82F2C2F11F0200EBD200704762
:101320002DE9F8431C4D064698460F46286891461D
:10133000FFF748FF194B1C682CB3286865681F2D00
:1013400024DC4EB96B1C0235636044F82570FFF74E
:1013500041FF0020BDE8F88304EB85010123022E44
:10136000C1F8889003FA05F3D4F8882142EA030211
:10137000C4F88821C1F80881E4D1D4F88C211A433B
:10138000C4F88C21DEE7064C1C60D6E7FFF722FF8D
:101390004FF0FF30DEE700BF540200209005002030
:1013A00000040020024B13B10248FFF7E7BE70476C
:1013B0000000000089110010F8B500BF0000000017
:1013C0005FF800F0F70100205FF800F0C301002093
:1013D000210E00109D0D0010C90D0010910E00107F
:1013E000010E0010450D0010490E0010150D0010E3
:1013F000810400104D0E001025080010710D001022
:10140000350E0010E50D00104D030010990300107B
:08141000A5130010E901001012
:101418000A2A2A2A2050414E4943202A2A2A0A0009
:10142800486172647761726520616C61726D202514
:101438006420616C726561647920636C61696D65B3
:1014480064004861726420617373657274004D6949
:101458006E53697A6552656C00626F6F74325F779C
:1014680032357130383000322E322E300074696EC9
:101478007963697263756974735F7468756D62798D
:101488005F636F6C6F725F727032333530007465F2
:1014980073745F626C696E6B004A616E2033312031
:1014A800323032360006005250D3F07542561400DE
:1014B8001006005250E182887F6114001006005225
:1014C80050ABB360536F14001006005250BBFF3C82
:1014D800B67514001006005250861C0302961400BC
:1014E80010060052505422A29DA11400100500526B
:0C14F80050DE65F4688C1600100D0A0030
:08150400D4FCFF7F0100000090
:10150C00AD140010B9140010C5140010D114001043
:0C151C00DD140010E9140010F51400109C
:10152800034630B50268EFF3108472B6D2E8CF5F95
:101538000120002DFAD1C2E8450F002DF6D1BFF3E6
:101548005F8F93F90420002A0BDA4FF050420120F4
:1015580012681A711A680023C2E88F3F84F3108852
:1015680030BD09B90020F5E70A60FBE72DE9F04135
:101578001D464FF05043044616460027D3F8008016
:101588002268EFF3108372B6D2E8CF0F012100284A
:10159800FAD1C2E8401F0028F6D1BFF35F8F94F953
:1015A8000420002A226808DA84F80480C2E88F7FC1
:1015B80083F310880120BDE8F081C2E88F7F83F3B0
:1015C80010883046294600F03BF80028D8D0002083
:1015D800F1E773B501A9044616461D46FFF7A0FFBB
:1015E80078B94FF050439DF9042093F900309A429E
:1015F80007D032462B46204602B0BDE87040FFF7C0
:10160800B5BF02B070BD10B50368EFF3108272B6B3
:10161800D3E8CF4F0121002CFAD1C3E8441F002C96
:10162800F6D1BFF35F8FFF23016803710023C1E880
:101638008F3F82F3108840BF10BD000000000000FB
:101648005FF800F0C50A001010000000000000005C
:101658000000000000000000000000000000000082
:1016680060020020F80300200000000000000000D5
:10167800D3DEFFFFFE010000FF010000C0EAFFFF0C
:04168800793512ABF3
:040000051000014D99
:00000001FF
